{
  "contractName": "BAMfers",
  "abi": [
    {
      "inputs": [
        {
          "internalType": "string",
          "name": "baseUri",
          "type": "string"
        }
      ],
      "stateMutability": "nonpayable",
      "type": "constructor"
    },
    {
      "inputs": [],
      "name": "ApprovalCallerNotOwnerNorApproved",
      "type": "error"
    },
    {
      "inputs": [],
      "name": "ApprovalQueryForNonexistentToken",
      "type": "error"
    },
    {
      "inputs": [],
      "name": "ApprovalToCurrentOwner",
      "type": "error"
    },
    {
      "inputs": [],
      "name": "ApproveToCaller",
      "type": "error"
    },
    {
      "inputs": [],
      "name": "BalanceQueryForZeroAddress",
      "type": "error"
    },
    {
      "inputs": [],
      "name": "FreeMintReserveExceeded",
      "type": "error"
    },
    {
      "inputs": [],
      "name": "InsufficientFunds",
      "type": "error"
    },
    {
      "inputs": [],
      "name": "MaxSupplyExceeded",
      "type": "error"
    },
    {
      "inputs": [],
      "name": "MintToZeroAddress",
      "type": "error"
    },
    {
      "inputs": [],
      "name": "MintZeroQuantity",
      "type": "error"
    },
    {
      "inputs": [],
      "name": "OwnerQueryForNonexistentToken",
      "type": "error"
    },
    {
      "inputs": [],
      "name": "QuantityToMintTooHigh",
      "type": "error"
    },
    {
      "inputs": [],
      "name": "SaleIsNotActive",
      "type": "error"
    },
    {
      "inputs": [],
      "name": "TheCallerIsAnotherContract",
      "type": "error"
    },
    {
      "inputs": [],
      "name": "TransferCallerNotOwnerNorApproved",
      "type": "error"
    },
    {
      "inputs": [],
      "name": "TransferFromIncorrectOwner",
      "type": "error"
    },
    {
      "inputs": [],
      "name": "TransferToNonERC721ReceiverImplementer",
      "type": "error"
    },
    {
      "inputs": [],
      "name": "TransferToZeroAddress",
      "type": "error"
    },
    {
      "inputs": [],
      "name": "URIQueryForNonexistentToken",
      "type": "error"
    },
    {
      "anonymous": false,
      "inputs": [
        {
          "indexed": true,
          "internalType": "address",
          "name": "owner",
          "type": "address"
        },
        {
          "indexed": true,
          "internalType": "address",
          "name": "approved",
          "type": "address"
        },
        {
          "indexed": true,
          "internalType": "uint256",
          "name": "tokenId",
          "type": "uint256"
        }
      ],
      "name": "Approval",
      "type": "event"
    },
    {
      "anonymous": false,
      "inputs": [
        {
          "indexed": true,
          "internalType": "address",
          "name": "owner",
          "type": "address"
        },
        {
          "indexed": true,
          "internalType": "address",
          "name": "operator",
          "type": "address"
        },
        {
          "indexed": false,
          "internalType": "bool",
          "name": "approved",
          "type": "bool"
        }
      ],
      "name": "ApprovalForAll",
      "type": "event"
    },
    {
      "anonymous": false,
      "inputs": [
        {
          "indexed": true,
          "internalType": "address",
          "name": "previousOwner",
          "type": "address"
        },
        {
          "indexed": true,
          "internalType": "address",
          "name": "newOwner",
          "type": "address"
        }
      ],
      "name": "OwnershipTransferred",
      "type": "event"
    },
    {
      "anonymous": false,
      "inputs": [
        {
          "indexed": true,
          "internalType": "address",
          "name": "from",
          "type": "address"
        },
        {
          "indexed": true,
          "internalType": "address",
          "name": "to",
          "type": "address"
        },
        {
          "indexed": true,
          "internalType": "uint256",
          "name": "tokenId",
          "type": "uint256"
        }
      ],
      "name": "Transfer",
      "type": "event"
    },
    {
      "inputs": [],
      "name": "BAMFERS_PRICE",
      "outputs": [
        {
          "internalType": "uint256",
          "name": "",
          "type": "uint256"
        }
      ],
      "stateMutability": "view",
      "type": "function",
      "constant": true
    },
    {
      "inputs": [],
      "name": "MAX_BAMFERS",
      "outputs": [
        {
          "internalType": "uint256",
          "name": "",
          "type": "uint256"
        }
      ],
      "stateMutability": "view",
      "type": "function",
      "constant": true
    },
    {
      "inputs": [],
      "name": "MAX_FREE_MINT_RESERVE",
      "outputs": [
        {
          "internalType": "uint256",
          "name": "",
          "type": "uint256"
        }
      ],
      "stateMutability": "view",
      "type": "function",
      "constant": true
    },
    {
      "inputs": [],
      "name": "MAX_PURCHASE_PER_TX",
      "outputs": [
        {
          "internalType": "uint256",
          "name": "",
          "type": "uint256"
        }
      ],
      "stateMutability": "view",
      "type": "function",
      "constant": true
    },
    {
      "inputs": [],
      "name": "PROVENANCE",
      "outputs": [
        {
          "internalType": "string",
          "name": "",
          "type": "string"
        }
      ],
      "stateMutability": "view",
      "type": "function",
      "constant": true
    },
    {
      "inputs": [
        {
          "internalType": "address",
          "name": "to",
          "type": "address"
        },
        {
          "internalType": "uint256",
          "name": "tokenId",
          "type": "uint256"
        }
      ],
      "name": "approve",
      "outputs": [],
      "stateMutability": "nonpayable",
      "type": "function"
    },
    {
      "inputs": [
        {
          "internalType": "address",
          "name": "owner",
          "type": "address"
        }
      ],
      "name": "balanceOf",
      "outputs": [
        {
          "internalType": "uint256",
          "name": "",
          "type": "uint256"
        }
      ],
      "stateMutability": "view",
      "type": "function",
      "constant": true
    },
    {
      "inputs": [
        {
          "internalType": "uint256",
          "name": "tokenId",
          "type": "uint256"
        }
      ],
      "name": "getApproved",
      "outputs": [
        {
          "internalType": "address",
          "name": "",
          "type": "address"
        }
      ],
      "stateMutability": "view",
      "type": "function",
      "constant": true
    },
    {
      "inputs": [
        {
          "internalType": "address",
          "name": "owner",
          "type": "address"
        },
        {
          "internalType": "address",
          "name": "operator",
          "type": "address"
        }
      ],
      "name": "isApprovedForAll",
      "outputs": [
        {
          "internalType": "bool",
          "name": "",
          "type": "bool"
        }
      ],
      "stateMutability": "view",
      "type": "function",
      "constant": true
    },
    {
      "inputs": [],
      "name": "name",
      "outputs": [
        {
          "internalType": "string",
          "name": "",
          "type": "string"
        }
      ],
      "stateMutability": "view",
      "type": "function",
      "constant": true
    },
    {
      "inputs": [],
      "name": "owner",
      "outputs": [
        {
          "internalType": "address",
          "name": "",
          "type": "address"
        }
      ],
      "stateMutability": "view",
      "type": "function",
      "constant": true
    },
    {
      "inputs": [
        {
          "internalType": "uint256",
          "name": "tokenId",
          "type": "uint256"
        }
      ],
      "name": "ownerOf",
      "outputs": [
        {
          "internalType": "address",
          "name": "",
          "type": "address"
        }
      ],
      "stateMutability": "view",
      "type": "function",
      "constant": true
    },
    {
      "inputs": [],
      "name": "renounceOwnership",
      "outputs": [],
      "stateMutability": "nonpayable",
      "type": "function"
    },
    {
      "inputs": [
        {
          "internalType": "address",
          "name": "from",
          "type": "address"
        },
        {
          "internalType": "address",
          "name": "to",
          "type": "address"
        },
        {
          "internalType": "uint256",
          "name": "tokenId",
          "type": "uint256"
        }
      ],
      "name": "safeTransferFrom",
      "outputs": [],
      "stateMutability": "nonpayable",
      "type": "function"
    },
    {
      "inputs": [
        {
          "internalType": "address",
          "name": "from",
          "type": "address"
        },
        {
          "internalType": "address",
          "name": "to",
          "type": "address"
        },
        {
          "internalType": "uint256",
          "name": "tokenId",
          "type": "uint256"
        },
        {
          "internalType": "bytes",
          "name": "_data",
          "type": "bytes"
        }
      ],
      "name": "safeTransferFrom",
      "outputs": [],
      "stateMutability": "nonpayable",
      "type": "function"
    },
    {
      "inputs": [],
      "name": "saleIsActive",
      "outputs": [
        {
          "internalType": "bool",
          "name": "",
          "type": "bool"
        }
      ],
      "stateMutability": "view",
      "type": "function",
      "constant": true
    },
    {
      "inputs": [
        {
          "internalType": "address",
          "name": "operator",
          "type": "address"
        },
        {
          "internalType": "bool",
          "name": "approved",
          "type": "bool"
        }
      ],
      "name": "setApprovalForAll",
      "outputs": [],
      "stateMutability": "nonpayable",
      "type": "function"
    },
    {
      "inputs": [
        {
          "internalType": "bytes4",
          "name": "interfaceId",
          "type": "bytes4"
        }
      ],
      "name": "supportsInterface",
      "outputs": [
        {
          "internalType": "bool",
          "name": "",
          "type": "bool"
        }
      ],
      "stateMutability": "view",
      "type": "function",
      "constant": true
    },
    {
      "inputs": [],
      "name": "symbol",
      "outputs": [
        {
          "internalType": "string",
          "name": "",
          "type": "string"
        }
      ],
      "stateMutability": "view",
      "type": "function",
      "constant": true
    },
    {
      "inputs": [
        {
          "internalType": "uint256",
          "name": "tokenId",
          "type": "uint256"
        }
      ],
      "name": "tokenURI",
      "outputs": [
        {
          "internalType": "string",
          "name": "",
          "type": "string"
        }
      ],
      "stateMutability": "view",
      "type": "function",
      "constant": true
    },
    {
      "inputs": [],
      "name": "totalSupply",
      "outputs": [
        {
          "internalType": "uint256",
          "name": "",
          "type": "uint256"
        }
      ],
      "stateMutability": "view",
      "type": "function",
      "constant": true
    },
    {
      "inputs": [
        {
          "internalType": "address",
          "name": "from",
          "type": "address"
        },
        {
          "internalType": "address",
          "name": "to",
          "type": "address"
        },
        {
          "internalType": "uint256",
          "name": "tokenId",
          "type": "uint256"
        }
      ],
      "name": "transferFrom",
      "outputs": [],
      "stateMutability": "nonpayable",
      "type": "function"
    },
    {
      "inputs": [
        {
          "internalType": "address",
          "name": "newOwner",
          "type": "address"
        }
      ],
      "name": "transferOwnership",
      "outputs": [],
      "stateMutability": "nonpayable",
      "type": "function"
    },
    {
      "inputs": [
        {
          "internalType": "uint256",
          "name": "quantity",
          "type": "uint256"
        }
      ],
      "name": "mint",
      "outputs": [],
      "stateMutability": "payable",
      "type": "function",
      "payable": true
    },
    {
      "inputs": [],
      "name": "freeMintReserve",
      "outputs": [
        {
          "internalType": "uint256",
          "name": "",
          "type": "uint256"
        }
      ],
      "stateMutability": "view",
      "type": "function",
      "constant": true
    },
    {
      "inputs": [
        {
          "internalType": "uint256",
          "name": "quantity",
          "type": "uint256"
        }
      ],
      "name": "freeMint",
      "outputs": [],
      "stateMutability": "payable",
      "type": "function",
      "payable": true
    },
    {
      "inputs": [
        {
          "internalType": "string",
          "name": "newBaseUri",
          "type": "string"
        }
      ],
      "name": "setBaseUri",
      "outputs": [],
      "stateMutability": "nonpayable",
      "type": "function"
    },
    {
      "inputs": [],
      "name": "changeSaleState",
      "outputs": [],
      "stateMutability": "payable",
      "type": "function",
      "payable": true
    },
    {
      "inputs": [],
      "name": "withdraw",
      "outputs": [],
      "stateMutability": "nonpayable",
      "type": "function"
    }
  ],
  "bytecode": "0x608060405260405180602001604052806000815250600a90805190602001906200002b92919062000321565b506000600b556000600c60006101000a81548160ff0219169083151502179055503480156200005957600080fd5b5060405162003bf238038062003bf283398181016040528101906200007f91906200056e565b6040518060400160405280600781526020017f42414d66657273000000000000000000000000000000000000000000000000008152506040518060400160405280600781526020017f42414d464552530000000000000000000000000000000000000000000000000081525081600290805190602001906200010392919062000321565b5080600390805190602001906200011c92919062000321565b506200012d6200017560201b60201c565b600081905550505062000155620001496200017e60201b60201c565b6200018660201b60201c565b60016009819055506200016e816200024c60201b60201c565b50620006a7565b60006001905090565b600033905090565b6000600860009054906101000a900473ffffffffffffffffffffffffffffffffffffffff16905081600860006101000a81548173ffffffffffffffffffffffffffffffffffffffff021916908373ffffffffffffffffffffffffffffffffffffffff1602179055508173ffffffffffffffffffffffffffffffffffffffff168173ffffffffffffffffffffffffffffffffffffffff167f8be0079c531659141344cd1fd0a4f28419497f9722a3daafe3b4186f6b6457e060405160405180910390a35050565b6200025c6200017e60201b60201c565b73ffffffffffffffffffffffffffffffffffffffff1662000282620002f760201b60201c565b73ffffffffffffffffffffffffffffffffffffffff1614620002db576040517f08c379a0000000000000000000000000000000000000000000000000000000008152600401620002d29062000620565b60405180910390fd5b80600a9080519060200190620002f392919062000321565b5050565b6000600860009054906101000a900473ffffffffffffffffffffffffffffffffffffffff16905090565b8280546200032f9062000671565b90600052602060002090601f0160209004810192826200035357600085556200039f565b82601f106200036e57805160ff19168380011785556200039f565b828001600101855582156200039f579182015b828111156200039e57825182559160200191906001019062000381565b5b509050620003ae9190620003b2565b5090565b5b80821115620003cd576000816000905550600101620003b3565b5090565b6000604051905090565b600080fd5b600080fd5b600080fd5b600080fd5b6000601f19601f8301169050919050565b7f4e487b7100000000000000000000000000000000000000000000000000000000600052604160045260246000fd5b6200043a82620003ef565b810181811067ffffffffffffffff821117156200045c576200045b62000400565b5b80604052505050565b600062000471620003d1565b90506200047f82826200042f565b919050565b600067ffffffffffffffff821115620004a257620004a162000400565b5b620004ad82620003ef565b9050602081019050919050565b60005b83811015620004da578082015181840152602081019050620004bd565b83811115620004ea576000848401525b50505050565b600062000507620005018462000484565b62000465565b905082815260208101848484011115620005265762000525620003ea565b5b62000533848285620004ba565b509392505050565b600082601f830112620005535762000552620003e5565b5b815162000565848260208601620004f0565b91505092915050565b600060208284031215620005875762000586620003db565b5b600082015167ffffffffffffffff811115620005a857620005a7620003e0565b5b620005b6848285016200053b565b91505092915050565b600082825260208201905092915050565b7f4f776e61626c653a2063616c6c6572206973206e6f7420746865206f776e6572600082015250565b600062000608602083620005bf565b91506200061582620005d0565b602082019050919050565b600060208201905081810360008301526200063b81620005f9565b9050919050565b7f4e487b7100000000000000000000000000000000000000000000000000000000600052602260045260246000fd5b600060028204905060018216806200068a57607f821691505b60208210811415620006a157620006a062000642565b5b50919050565b61353b80620006b76000396000f3fe6080604052600436106101c25760003560e01c806370a08231116100f7578063a22cb46511610095578063e985e9c511610064578063e985e9c5146105e1578063eb8d24441461061e578063f0234ed214610649578063f2fde38b14610674576101c2565b8063a22cb46514610548578063b88d4fde14610571578063c87b56dd1461059a578063dd9c1f23146105d7576101c2565b80638da5cb5b116100d15780638da5cb5b146104ad57806395d89b41146104d8578063a0712d6814610503578063a0bcfc7f1461051f576101c2565b806370a082311461043d578063715018a61461047a5780637c928fe914610491576101c2565b80633abc1a441161016457806342842e0e1161013e57806342842e0e146103815780636352211e146103aa5780636373a6b1146103e75780636f48525414610412576101c2565b80633abc1a44146103145780633ccfd60b1461033f5780633e4faa3e14610356576101c2565b8063095ea7b3116101a0578063095ea7b31461026c5780630f0e28321461029557806318160ddd146102c057806323b872dd146102eb576101c2565b806301ffc9a7146101c757806306fdde0314610204578063081812fc1461022f575b600080fd5b3480156101d357600080fd5b506101ee60048036038101906101e99190612914565b61069d565b6040516101fb919061295c565b60405180910390f35b34801561021057600080fd5b5061021961077f565b6040516102269190612a10565b60405180910390f35b34801561023b57600080fd5b5061025660048036038101906102519190612a68565b610811565b6040516102639190612ad6565b60405180910390f35b34801561027857600080fd5b50610293600480360381019061028e9190612b1d565b61088d565b005b3480156102a157600080fd5b506102aa610998565b6040516102b79190612b6c565b60405180910390f35b3480156102cc57600080fd5b506102d56109a6565b6040516102e29190612b6c565b60405180910390f35b3480156102f757600080fd5b50610312600480360381019061030d9190612b87565b6109bd565b005b34801561032057600080fd5b506103296109cd565b6040516103369190612b6c565b60405180910390f35b34801561034b57600080fd5b506103546109d2565b005b34801561036257600080fd5b5061036b610ace565b6040516103789190612b6c565b60405180910390f35b34801561038d57600080fd5b506103a860048036038101906103a39190612b87565b610ad4565b005b3480156103b657600080fd5b506103d160048036038101906103cc9190612a68565b610af4565b6040516103de9190612ad6565b60405180910390f35b3480156103f357600080fd5b506103fc610b0a565b6040516104099190612a10565b60405180910390f35b34801561041e57600080fd5b50610427610b26565b6040516104349190612b6c565b60405180910390f35b34801561044957600080fd5b50610464600480360381019061045f9190612bda565b610b31565b6040516104719190612b6c565b60405180910390f35b34801561048657600080fd5b5061048f610c01565b005b6104ab60048036038101906104a69190612a68565b610c89565b005b3480156104b957600080fd5b506104c2610e91565b6040516104cf9190612ad6565b60405180910390f35b3480156104e457600080fd5b506104ed610ebb565b6040516104fa9190612a10565b60405180910390f35b61051d60048036038101906105189190612a68565b610f4d565b005b34801561052b57600080fd5b5061054660048036038101906105419190612d3c565b611148565b005b34801561055457600080fd5b5061056f600480360381019061056a9190612db1565b6111de565b005b34801561057d57600080fd5b5061059860048036038101906105939190612e92565b611356565b005b3480156105a657600080fd5b506105c160048036038101906105bc9190612a68565b6113d2565b6040516105ce9190612a10565b60405180910390f35b6105df611471565b005b3480156105ed57600080fd5b5061060860048036038101906106039190612f15565b611519565b604051610615919061295c565b60405180910390f35b34801561062a57600080fd5b506106336115ad565b604051610640919061295c565b60405180910390f35b34801561065557600080fd5b5061065e6115c0565b60405161066b9190612b6c565b60405180910390f35b34801561068057600080fd5b5061069b60048036038101906106969190612bda565b6115c6565b005b60007f80ac58cd000000000000000000000000000000000000000000000000000000007bffffffffffffffffffffffffffffffffffffffffffffffffffffffff1916827bffffffffffffffffffffffffffffffffffffffffffffffffffffffff1916148061076857507f5b5e139f000000000000000000000000000000000000000000000000000000007bffffffffffffffffffffffffffffffffffffffffffffffffffffffff1916827bffffffffffffffffffffffffffffffffffffffffffffffffffffffff1916145b806107785750610777826116be565b5b9050919050565b60606002805461078e90612f84565b80601f01602080910402602001604051908101604052809291908181526020018280546107ba90612f84565b80156108075780601f106107dc57610100808354040283529160200191610807565b820191906000526020600020905b8154815290600101906020018083116107ea57829003601f168201915b5050505050905090565b600061081c82611728565b610852576040517fcf4700e400000000000000000000000000000000000000000000000000000000815260040160405180910390fd5b6006600083815260200190815260200160002060009054906101000a900473ffffffffffffffffffffffffffffffffffffffff169050919050565b600061089882610af4565b90508073ffffffffffffffffffffffffffffffffffffffff168373ffffffffffffffffffffffffffffffffffffffff161415610900576040517f943f7b8c00000000000000000000000000000000000000000000000000000000815260040160405180910390fd5b8073ffffffffffffffffffffffffffffffffffffffff1661091f611776565b73ffffffffffffffffffffffffffffffffffffffff1614158015610951575061094f8161094a611776565b611519565b155b15610988576040517fcfb3b94200000000000000000000000000000000000000000000000000000000815260040160405180910390fd5b61099383838361177e565b505050565b6000600b5461014d03905090565b60006109b0611830565b6001546000540303905090565b6109c8838383611839565b505050565b601481565b6109da611776565b73ffffffffffffffffffffffffffffffffffffffff166109f8610e91565b73ffffffffffffffffffffffffffffffffffffffff1614610a4e576040517f08c379a0000000000000000000000000000000000000000000000000000000008152600401610a4590613002565b60405180910390fd5b6000610a58610e91565b73ffffffffffffffffffffffffffffffffffffffff1647604051610a7b90613053565b60006040518083038185875af1925050503d8060008114610ab8576040519150601f19603f3d011682016040523d82523d6000602084013e610abd565b606091505b5050905080610acb57600080fd5b50565b61014d81565b610aef83838360405180602001604052806000815250611356565b505050565b6000610aff82611d2a565b600001519050919050565b6040518060600160405280604081526020016134c66040913981565b662386f26fc1000081565b60008073ffffffffffffffffffffffffffffffffffffffff168273ffffffffffffffffffffffffffffffffffffffff161415610b99576040517f8f4eb60400000000000000000000000000000000000000000000000000000000815260040160405180910390fd5b600560008373ffffffffffffffffffffffffffffffffffffffff1673ffffffffffffffffffffffffffffffffffffffff16815260200190815260200160002060000160009054906101000a900467ffffffffffffffff1667ffffffffffffffff169050919050565b610c09611776565b73ffffffffffffffffffffffffffffffffffffffff16610c27610e91565b73ffffffffffffffffffffffffffffffffffffffff1614610c7d576040517f08c379a0000000000000000000000000000000000000000000000000000000008152600401610c7490613002565b60405180910390fd5b610c876000611fb9565b565b3373ffffffffffffffffffffffffffffffffffffffff163273ffffffffffffffffffffffffffffffffffffffff1614610cee576040517fee57192000000000000000000000000000000000000000000000000000000000815260040160405180910390fd5b60026009541415610d34576040517f08c379a0000000000000000000000000000000000000000000000000000000008152600401610d2b906130b4565b60405180910390fd5b600260098190555080600c60009054906101000a900460ff16610d82576040517eecac0100000000000000000000000000000000000000000000000000000000815260040160405180910390fd5b6014811115610dbd576040517f01f4f2d400000000000000000000000000000000000000000000000000000000815260040160405180910390fd5b610d0581610dc96109a6565b610dd39190613103565b1115610e0b576040517f8a164f6300000000000000000000000000000000000000000000000000000000815260040160405180910390fd5b61014d82600b54610e1c9190613103565b1115610e54576040517f5911b0ed00000000000000000000000000000000000000000000000000000000815260040160405180910390fd5b610e75610e5f611776565b836040518060200160405280600081525061207f565b81600b6000828254019250508190555050600160098190555050565b6000600860009054906101000a900473ffffffffffffffffffffffffffffffffffffffff16905090565b606060038054610eca90612f84565b80601f0160208091040260200160405190810160405280929190818152602001828054610ef690612f84565b8015610f435780601f10610f1857610100808354040283529160200191610f43565b820191906000526020600020905b815481529060010190602001808311610f2657829003601f168201915b5050505050905090565b3373ffffffffffffffffffffffffffffffffffffffff163273ffffffffffffffffffffffffffffffffffffffff1614610fb2576040517fee57192000000000000000000000000000000000000000000000000000000000815260040160405180910390fd5b60026009541415610ff8576040517f08c379a0000000000000000000000000000000000000000000000000000000008152600401610fef906130b4565b60405180910390fd5b600260098190555080600c60009054906101000a900460ff16611046576040517eecac0100000000000000000000000000000000000000000000000000000000815260040160405180910390fd5b6014811115611081576040517f01f4f2d400000000000000000000000000000000000000000000000000000000815260040160405180910390fd5b610d058161108d6109a6565b6110979190613103565b11156110cf576040517f8a164f6300000000000000000000000000000000000000000000000000000000815260040160405180910390fd5b81662386f26fc100006110e29190613159565b34101561111b576040517f356680b700000000000000000000000000000000000000000000000000000000815260040160405180910390fd5b61113c611126611776565b836040518060200160405280600081525061207f565b50600160098190555050565b611150611776565b73ffffffffffffffffffffffffffffffffffffffff1661116e610e91565b73ffffffffffffffffffffffffffffffffffffffff16146111c4576040517f08c379a00000000000000000000000000000000000000000000000000000000081526004016111bb90613002565b60405180910390fd5b80600a90805190602001906111da9291906127c2565b5050565b6111e6611776565b73ffffffffffffffffffffffffffffffffffffffff168273ffffffffffffffffffffffffffffffffffffffff16141561124b576040517fb06307db00000000000000000000000000000000000000000000000000000000815260040160405180910390fd5b8060076000611258611776565b73ffffffffffffffffffffffffffffffffffffffff1673ffffffffffffffffffffffffffffffffffffffff16815260200190815260200160002060008473ffffffffffffffffffffffffffffffffffffffff1673ffffffffffffffffffffffffffffffffffffffff16815260200190815260200160002060006101000a81548160ff0219169083151502179055508173ffffffffffffffffffffffffffffffffffffffff16611305611776565b73ffffffffffffffffffffffffffffffffffffffff167f17307eab39ab6107e8899845ad3d59bd9653f200f220920489ca2b5937696c318360405161134a919061295c565b60405180910390a35050565b611361848484611839565b6113808373ffffffffffffffffffffffffffffffffffffffff16612091565b80156113955750611393848484846120a4565b155b156113cc576040517fd1a57ed600000000000000000000000000000000000000000000000000000000815260040160405180910390fd5b50505050565b60606113dd82611728565b611413576040517fa14c4b5000000000000000000000000000000000000000000000000000000000815260040160405180910390fd5b600061141d6121f5565b905060008151141561143e5760405180602001604052806000815250611469565b8061144884612287565b6040516020016114599291906131ef565b6040516020818303038152906040525b915050919050565b611479611776565b73ffffffffffffffffffffffffffffffffffffffff16611497610e91565b73ffffffffffffffffffffffffffffffffffffffff16146114ed576040517f08c379a00000000000000000000000000000000000000000000000000000000081526004016114e490613002565b60405180910390fd5b600c60009054906101000a900460ff1615600c60006101000a81548160ff021916908315150217905550565b6000600760008473ffffffffffffffffffffffffffffffffffffffff1673ffffffffffffffffffffffffffffffffffffffff16815260200190815260200160002060008373ffffffffffffffffffffffffffffffffffffffff1673ffffffffffffffffffffffffffffffffffffffff16815260200190815260200160002060009054906101000a900460ff16905092915050565b600c60009054906101000a900460ff1681565b610d0581565b6115ce611776565b73ffffffffffffffffffffffffffffffffffffffff166115ec610e91565b73ffffffffffffffffffffffffffffffffffffffff1614611642576040517f08c379a000000000000000000000000000000000000000000000000000000000815260040161163990613002565b60405180910390fd5b600073ffffffffffffffffffffffffffffffffffffffff168173ffffffffffffffffffffffffffffffffffffffff1614156116b2576040517f08c379a00000000000000000000000000000000000000000000000000000000081526004016116a990613285565b60405180910390fd5b6116bb81611fb9565b50565b60007f01ffc9a7000000000000000000000000000000000000000000000000000000007bffffffffffffffffffffffffffffffffffffffffffffffffffffffff1916827bffffffffffffffffffffffffffffffffffffffffffffffffffffffff1916149050919050565b600081611733611830565b11158015611742575060005482105b801561176f575060046000838152602001908152602001600020600001601c9054906101000a900460ff16155b9050919050565b600033905090565b826006600084815260200190815260200160002060006101000a81548173ffffffffffffffffffffffffffffffffffffffff021916908373ffffffffffffffffffffffffffffffffffffffff160217905550818373ffffffffffffffffffffffffffffffffffffffff168273ffffffffffffffffffffffffffffffffffffffff167f8c5be1e5ebec7d5bd14f71427d1e84f3dd0314c0f7b2291e5b200ac8c7c3b92560405160405180910390a4505050565b60006001905090565b600061184482611d2a565b90506000816000015173ffffffffffffffffffffffffffffffffffffffff1661186b611776565b73ffffffffffffffffffffffffffffffffffffffff16148061189e575061189d8260000151611898611776565b611519565b5b806118e357506118ac611776565b73ffffffffffffffffffffffffffffffffffffffff166118cb84610811565b73ffffffffffffffffffffffffffffffffffffffff16145b90508061191c576040517f59c896be00000000000000000000000000000000000000000000000000000000815260040160405180910390fd5b8473ffffffffffffffffffffffffffffffffffffffff16826000015173ffffffffffffffffffffffffffffffffffffffff1614611985576040517fa114810000000000000000000000000000000000000000000000000000000000815260040160405180910390fd5b600073ffffffffffffffffffffffffffffffffffffffff168473ffffffffffffffffffffffffffffffffffffffff1614156119ec576040517fea553b3400000000000000000000000000000000000000000000000000000000815260040160405180910390fd5b6119f985858560016123e8565b611a09600084846000015161177e565b6001600560008773ffffffffffffffffffffffffffffffffffffffff1673ffffffffffffffffffffffffffffffffffffffff16815260200190815260200160002060000160008282829054906101000a900467ffffffffffffffff160392506101000a81548167ffffffffffffffff021916908367ffffffffffffffff1602179055506001600560008673ffffffffffffffffffffffffffffffffffffffff1673ffffffffffffffffffffffffffffffffffffffff16815260200190815260200160002060000160008282829054906101000a900467ffffffffffffffff160192506101000a81548167ffffffffffffffff021916908367ffffffffffffffff160217905550836004600085815260200190815260200160002060000160006101000a81548173ffffffffffffffffffffffffffffffffffffffff021916908373ffffffffffffffffffffffffffffffffffffffff160217905550426004600085815260200190815260200160002060000160146101000a81548167ffffffffffffffff021916908367ffffffffffffffff1602179055506000600184019050600073ffffffffffffffffffffffffffffffffffffffff166004600083815260200190815260200160002060000160009054906101000a900473ffffffffffffffffffffffffffffffffffffffff1673ffffffffffffffffffffffffffffffffffffffff161415611cba57600054811015611cb95782600001516004600083815260200190815260200160002060000160006101000a81548173ffffffffffffffffffffffffffffffffffffffff021916908373ffffffffffffffffffffffffffffffffffffffff16021790555082602001516004600083815260200190815260200160002060000160146101000a81548167ffffffffffffffff021916908367ffffffffffffffff1602179055505b5b50828473ffffffffffffffffffffffffffffffffffffffff168673ffffffffffffffffffffffffffffffffffffffff167fddf252ad1be2c89b69c2b068fc378daa952ba7f163c4a11628f55a4df523b3ef60405160405180910390a4611d2385858560016123ee565b5050505050565b611d32612848565b600082905080611d40611830565b11158015611d4f575060005481105b15611f82576000600460008381526020019081526020016000206040518060600160405290816000820160009054906101000a900473ffffffffffffffffffffffffffffffffffffffff1673ffffffffffffffffffffffffffffffffffffffff1673ffffffffffffffffffffffffffffffffffffffff1681526020016000820160149054906101000a900467ffffffffffffffff1667ffffffffffffffff1667ffffffffffffffff16815260200160008201601c9054906101000a900460ff16151515158152505090508060400151611f8057600073ffffffffffffffffffffffffffffffffffffffff16816000015173ffffffffffffffffffffffffffffffffffffffff1614611e64578092505050611fb4565b5b600115611f7f57818060019003925050600460008381526020019081526020016000206040518060600160405290816000820160009054906101000a900473ffffffffffffffffffffffffffffffffffffffff1673ffffffffffffffffffffffffffffffffffffffff1673ffffffffffffffffffffffffffffffffffffffff1681526020016000820160149054906101000a900467ffffffffffffffff1667ffffffffffffffff1667ffffffffffffffff16815260200160008201601c9054906101000a900460ff1615151515815250509050600073ffffffffffffffffffffffffffffffffffffffff16816000015173ffffffffffffffffffffffffffffffffffffffff1614611f7a578092505050611fb4565b611e65565b5b505b6040517fdf2d9b4200000000000000000000000000000000000000000000000000000000815260040160405180910390fd5b919050565b6000600860009054906101000a900473ffffffffffffffffffffffffffffffffffffffff16905081600860006101000a81548173ffffffffffffffffffffffffffffffffffffffff021916908373ffffffffffffffffffffffffffffffffffffffff1602179055508173ffffffffffffffffffffffffffffffffffffffff168173ffffffffffffffffffffffffffffffffffffffff167f8be0079c531659141344cd1fd0a4f28419497f9722a3daafe3b4186f6b6457e060405160405180910390a35050565b61208c83838360016123f4565b505050565b600080823b905060008111915050919050565b60008373ffffffffffffffffffffffffffffffffffffffff1663150b7a026120ca611776565b8786866040518563ffffffff1660e01b81526004016120ec94939291906132fa565b6020604051808303816000875af192505050801561212857506040513d601f19601f82011682018060405250810190612125919061335b565b60015b6121a2573d8060008114612158576040519150601f19603f3d011682016040523d82523d6000602084013e61215d565b606091505b5060008151141561219a576040517fd1a57ed600000000000000000000000000000000000000000000000000000000815260040160405180910390fd5b805181602001fd5b63150b7a0260e01b7bffffffffffffffffffffffffffffffffffffffffffffffffffffffff1916817bffffffffffffffffffffffffffffffffffffffffffffffffffffffff191614915050949350505050565b6060600a805461220490612f84565b80601f016020809104026020016040519081016040528092919081815260200182805461223090612f84565b801561227d5780601f106122525761010080835404028352916020019161227d565b820191906000526020600020905b81548152906001019060200180831161226057829003601f168201915b5050505050905090565b606060008214156122cf576040518060400160405280600181526020017f300000000000000000000000000000000000000000000000000000000000000081525090506123e3565b600082905060005b600082146123015780806122ea90613388565b915050600a826122fa9190613400565b91506122d7565b60008167ffffffffffffffff81111561231d5761231c612c11565b5b6040519080825280601f01601f19166020018201604052801561234f5781602001600182028036833780820191505090505b5090505b600085146123dc576001826123689190613431565b9150600a856123779190613465565b60306123839190613103565b60f81b81838151811061239957612398613496565b5b60200101907effffffffffffffffffffffffffffffffffffffffffffffffffffffffffffff1916908160001a905350600a856123d59190613400565b9450612353565b8093505050505b919050565b50505050565b50505050565b600080549050600073ffffffffffffffffffffffffffffffffffffffff168573ffffffffffffffffffffffffffffffffffffffff161415612461576040517f2e07630000000000000000000000000000000000000000000000000000000000815260040160405180910390fd5b600084141561249c576040517fb562e8dd00000000000000000000000000000000000000000000000000000000815260040160405180910390fd5b6124a960008683876123e8565b83600560008773ffffffffffffffffffffffffffffffffffffffff1673ffffffffffffffffffffffffffffffffffffffff16815260200190815260200160002060000160008282829054906101000a900467ffffffffffffffff160192506101000a81548167ffffffffffffffff021916908367ffffffffffffffff16021790555083600560008773ffffffffffffffffffffffffffffffffffffffff1673ffffffffffffffffffffffffffffffffffffffff16815260200190815260200160002060000160088282829054906101000a900467ffffffffffffffff160192506101000a81548167ffffffffffffffff021916908367ffffffffffffffff160217905550846004600083815260200190815260200160002060000160006101000a81548173ffffffffffffffffffffffffffffffffffffffff021916908373ffffffffffffffffffffffffffffffffffffffff160217905550426004600083815260200190815260200160002060000160146101000a81548167ffffffffffffffff021916908367ffffffffffffffff16021790555060008190506000858201905083801561267357506126728773ffffffffffffffffffffffffffffffffffffffff16612091565b5b15612739575b818773ffffffffffffffffffffffffffffffffffffffff16600073ffffffffffffffffffffffffffffffffffffffff167fddf252ad1be2c89b69c2b068fc378daa952ba7f163c4a11628f55a4df523b3ef60405160405180910390a46126e860008884806001019550886120a4565b61271e576040517fd1a57ed600000000000000000000000000000000000000000000000000000000815260040160405180910390fd5b8082141561267957826000541461273457600080fd5b6127a5565b5b818060010192508773ffffffffffffffffffffffffffffffffffffffff16600073ffffffffffffffffffffffffffffffffffffffff167fddf252ad1be2c89b69c2b068fc378daa952ba7f163c4a11628f55a4df523b3ef60405160405180910390a48082141561273a575b8160008190555050506127bb60008683876123ee565b5050505050565b8280546127ce90612f84565b90600052602060002090601f0160209004810192826127f05760008555612837565b82601f1061280957805160ff1916838001178555612837565b82800160010185558215612837579182015b8281111561283657825182559160200191906001019061281b565b5b509050612844919061288b565b5090565b6040518060600160405280600073ffffffffffffffffffffffffffffffffffffffff168152602001600067ffffffffffffffff1681526020016000151581525090565b5b808211156128a457600081600090555060010161288c565b5090565b6000604051905090565b600080fd5b600080fd5b60007fffffffff0000000000000000000000000000000000000000000000000000000082169050919050565b6128f1816128bc565b81146128fc57600080fd5b50565b60008135905061290e816128e8565b92915050565b60006020828403121561292a576129296128b2565b5b6000612938848285016128ff565b91505092915050565b60008115159050919050565b61295681612941565b82525050565b6000602082019050612971600083018461294d565b92915050565b600081519050919050565b600082825260208201905092915050565b60005b838110156129b1578082015181840152602081019050612996565b838111156129c0576000848401525b50505050565b6000601f19601f8301169050919050565b60006129e282612977565b6129ec8185612982565b93506129fc818560208601612993565b612a05816129c6565b840191505092915050565b60006020820190508181036000830152612a2a81846129d7565b905092915050565b6000819050919050565b612a4581612a32565b8114612a5057600080fd5b50565b600081359050612a6281612a3c565b92915050565b600060208284031215612a7e57612a7d6128b2565b5b6000612a8c84828501612a53565b91505092915050565b600073ffffffffffffffffffffffffffffffffffffffff82169050919050565b6000612ac082612a95565b9050919050565b612ad081612ab5565b82525050565b6000602082019050612aeb6000830184612ac7565b92915050565b612afa81612ab5565b8114612b0557600080fd5b50565b600081359050612b1781612af1565b92915050565b60008060408385031215612b3457612b336128b2565b5b6000612b4285828601612b08565b9250506020612b5385828601612a53565b9150509250929050565b612b6681612a32565b82525050565b6000602082019050612b816000830184612b5d565b92915050565b600080600060608486031215612ba057612b9f6128b2565b5b6000612bae86828701612b08565b9350506020612bbf86828701612b08565b9250506040612bd086828701612a53565b9150509250925092565b600060208284031215612bf057612bef6128b2565b5b6000612bfe84828501612b08565b91505092915050565b600080fd5b600080fd5b7f4e487b7100000000000000000000000000000000000000000000000000000000600052604160045260246000fd5b612c49826129c6565b810181811067ffffffffffffffff82111715612c6857612c67612c11565b5b80604052505050565b6000612c7b6128a8565b9050612c878282612c40565b919050565b600067ffffffffffffffff821115612ca757612ca6612c11565b5b612cb0826129c6565b9050602081019050919050565b82818337600083830152505050565b6000612cdf612cda84612c8c565b612c71565b905082815260208101848484011115612cfb57612cfa612c0c565b5b612d06848285612cbd565b509392505050565b600082601f830112612d2357612d22612c07565b5b8135612d33848260208601612ccc565b91505092915050565b600060208284031215612d5257612d516128b2565b5b600082013567ffffffffffffffff811115612d7057612d6f6128b7565b5b612d7c84828501612d0e565b91505092915050565b612d8e81612941565b8114612d9957600080fd5b50565b600081359050612dab81612d85565b92915050565b60008060408385031215612dc857612dc76128b2565b5b6000612dd685828601612b08565b9250506020612de785828601612d9c565b9150509250929050565b600067ffffffffffffffff821115612e0c57612e0b612c11565b5b612e15826129c6565b9050602081019050919050565b6000612e35612e3084612df1565b612c71565b905082815260208101848484011115612e5157612e50612c0c565b5b612e5c848285612cbd565b509392505050565b600082601f830112612e7957612e78612c07565b5b8135612e89848260208601612e22565b91505092915050565b60008060008060808587031215612eac57612eab6128b2565b5b6000612eba87828801612b08565b9450506020612ecb87828801612b08565b9350506040612edc87828801612a53565b925050606085013567ffffffffffffffff811115612efd57612efc6128b7565b5b612f0987828801612e64565b91505092959194509250565b60008060408385031215612f2c57612f2b6128b2565b5b6000612f3a85828601612b08565b9250506020612f4b85828601612b08565b9150509250929050565b7f4e487b7100000000000000000000000000000000000000000000000000000000600052602260045260246000fd5b60006002820490506001821680612f9c57607f821691505b60208210811415612fb057612faf612f55565b5b50919050565b7f4f776e61626c653a2063616c6c6572206973206e6f7420746865206f776e6572600082015250565b6000612fec602083612982565b9150612ff782612fb6565b602082019050919050565b6000602082019050818103600083015261301b81612fdf565b9050919050565b600081905092915050565b50565b600061303d600083613022565b91506130488261302d565b600082019050919050565b600061305e82613030565b9150819050919050565b7f5265656e7472616e637947756172643a207265656e7472616e742063616c6c00600082015250565b600061309e601f83612982565b91506130a982613068565b602082019050919050565b600060208201905081810360008301526130cd81613091565b9050919050565b7f4e487b7100000000000000000000000000000000000000000000000000000000600052601160045260246000fd5b600061310e82612a32565b915061311983612a32565b9250827fffffffffffffffffffffffffffffffffffffffffffffffffffffffffffffffff0382111561314e5761314d6130d4565b5b828201905092915050565b600061316482612a32565b915061316f83612a32565b9250817fffffffffffffffffffffffffffffffffffffffffffffffffffffffffffffffff04831182151516156131a8576131a76130d4565b5b828202905092915050565b600081905092915050565b60006131c982612977565b6131d381856131b3565b93506131e3818560208601612993565b80840191505092915050565b60006131fb82856131be565b915061320782846131be565b91508190509392505050565b7f4f776e61626c653a206e6577206f776e657220697320746865207a65726f206160008201527f6464726573730000000000000000000000000000000000000000000000000000602082015250565b600061326f602683612982565b915061327a82613213565b604082019050919050565b6000602082019050818103600083015261329e81613262565b9050919050565b600081519050919050565b600082825260208201905092915050565b60006132cc826132a5565b6132d681856132b0565b93506132e6818560208601612993565b6132ef816129c6565b840191505092915050565b600060808201905061330f6000830187612ac7565b61331c6020830186612ac7565b6133296040830185612b5d565b818103606083015261333b81846132c1565b905095945050505050565b600081519050613355816128e8565b92915050565b600060208284031215613371576133706128b2565b5b600061337f84828501613346565b91505092915050565b600061339382612a32565b91507fffffffffffffffffffffffffffffffffffffffffffffffffffffffffffffffff8214156133c6576133c56130d4565b5b600182019050919050565b7f4e487b7100000000000000000000000000000000000000000000000000000000600052601260045260246000fd5b600061340b82612a32565b915061341683612a32565b925082613426576134256133d1565b5b828204905092915050565b600061343c82612a32565b915061344783612a32565b92508282101561345a576134596130d4565b5b828203905092915050565b600061347082612a32565b915061347b83612a32565b92508261348b5761348a6133d1565b5b828206905092915050565b7f4e487b7100000000000000000000000000000000000000000000000000000000600052603260045260246000fdfe65303263386139663463313333333736333338383163656261303161636539353532613162613031643863343563333866306634663836303361373434656666a2646970667358221220c4f82503c00fab6bd5ea8120b183ecb324e5fd051bf607f1c3d15aff8a91840b64736f6c634300080a0033",
  "immutableReferences": {},
  "source": "// SPDX-License-Identifier: MIT\n// Creators: Chiru Labs\n\npragma solidity ^0.8.4;\n\nimport \"@openzeppelin/contracts/access/Ownable.sol\";\nimport \"@openzeppelin/contracts/security/ReentrancyGuard.sol\";\nimport \"./ERC721A.sol\";\n\nerror QuantityToMintTooHigh();\nerror MaxSupplyExceeded();\nerror FreeMintReserveExceeded();\nerror InsufficientFunds();\nerror SaleIsNotActive();\nerror TheCallerIsAnotherContract();\n\ncontract BAMfers is ERC721A, Ownable, ReentrancyGuard {\n    string public constant PROVENANCE =\n        \"e02c8a9f4c13337633881ceba01ace9552a1ba01d8c45c38f0f4f8603a744eff\";\n    uint256 public constant MAX_PURCHASE_PER_TX = 20;\n    uint256 public constant MAX_BAMFERS = 3333;\n    uint256 public constant BAMFERS_PRICE = 0.01 ether;\n    uint256 public constant MAX_FREE_MINT_RESERVE = 333;\n\n    string private _uriPrefix = \"\";\n    uint256 private _freeMintCount = 0;\n    bool public saleIsActive = false;\n\n    constructor(string memory baseUri) ERC721A(\"BAMfers\", \"BAMFERS\") {\n        setBaseUri(baseUri);\n    }\n\n    function _startTokenId() internal view virtual override returns (uint256) {\n        return 1;\n    }\n\n    function _baseURI() internal view virtual override returns (string memory) {\n        return _uriPrefix;\n    }\n\n    modifier mintCompliance(uint256 quantity) {\n        if (!saleIsActive) revert SaleIsNotActive();\n        if (quantity > MAX_PURCHASE_PER_TX) revert QuantityToMintTooHigh();\n        if (totalSupply() + quantity > MAX_BAMFERS) revert MaxSupplyExceeded();\n        _;\n    }\n\n    modifier callerIsUser() {\n        if (tx.origin != msg.sender) revert TheCallerIsAnotherContract();\n        _;\n    }\n\n    function mint(uint256 quantity)\n        public\n        payable\n        callerIsUser\n        nonReentrant\n        mintCompliance(quantity)\n    {\n        if (msg.value < BAMFERS_PRICE * quantity) revert InsufficientFunds();\n\n        _safeMint(_msgSender(), quantity, \"\");\n    }\n\n    function freeMintReserve() public view returns (uint256) {\n        unchecked {\n            return MAX_FREE_MINT_RESERVE - _freeMintCount;\n        }\n    }\n\n    function freeMint(uint256 quantity)\n        public\n        payable\n        callerIsUser\n        nonReentrant\n        mintCompliance(quantity)\n    {\n        if (_freeMintCount + quantity > MAX_FREE_MINT_RESERVE)\n            revert FreeMintReserveExceeded();\n\n        _safeMint(_msgSender(), quantity, \"\");\n\n        unchecked {\n            _freeMintCount += quantity;\n        }\n    }\n\n    function setBaseUri(string memory newBaseUri) public onlyOwner {\n        _uriPrefix = newBaseUri;\n    }\n\n    function changeSaleState() external payable onlyOwner {\n        saleIsActive = !saleIsActive;\n    }\n\n    function withdraw() public onlyOwner {\n        (bool os, ) = payable(owner()).call{value: address(this).balance}(\"\");\n        require(os);\n    }\n}\n",
  "sourcePath": "/Volumes/toffysoft/toffysoft.inc/bam/bam-contract/contracts/BAMfers.sol",
  "compiler": {
    "name": "solc",
    "version": "0.8.10+commit.fc410830.Emscripten.clang"
  },
  "schemaVersion": "3.4.4",
  "updatedAt": "2022-03-19T10:58:32.727Z",
  "networkType": "ethereum",
  "devdoc": {
    "kind": "dev",
    "methods": {
      "approve(address,uint256)": {
        "details": "See {IERC721-approve}."
      },
      "balanceOf(address)": {
        "details": "See {IERC721-balanceOf}."
      },
      "getApproved(uint256)": {
        "details": "See {IERC721-getApproved}."
      },
      "isApprovedForAll(address,address)": {
        "details": "See {IERC721-isApprovedForAll}."
      },
      "name()": {
        "details": "See {IERC721Metadata-name}."
      },
      "owner()": {
        "details": "Returns the address of the current owner."
      },
      "ownerOf(uint256)": {
        "details": "See {IERC721-ownerOf}."
      },
      "renounceOwnership()": {
        "details": "Leaves the contract without owner. It will not be possible to call `onlyOwner` functions anymore. Can only be called by the current owner. NOTE: Renouncing ownership will leave the contract without an owner, thereby removing any functionality that is only available to the owner."
      },
      "safeTransferFrom(address,address,uint256)": {
        "details": "See {IERC721-safeTransferFrom}."
      },
      "safeTransferFrom(address,address,uint256,bytes)": {
        "details": "See {IERC721-safeTransferFrom}."
      },
      "setApprovalForAll(address,bool)": {
        "details": "See {IERC721-setApprovalForAll}."
      },
      "supportsInterface(bytes4)": {
        "details": "See {IERC165-supportsInterface}."
      },
      "symbol()": {
        "details": "See {IERC721Metadata-symbol}."
      },
      "tokenURI(uint256)": {
        "details": "See {IERC721Metadata-tokenURI}."
      },
      "totalSupply()": {
        "details": "See {IERC721Enumerable-totalSupply}.Burned tokens are calculated here, use _totalMinted() if you want to count just minted tokens."
      },
      "transferFrom(address,address,uint256)": {
        "details": "See {IERC721-transferFrom}."
      },
      "transferOwnership(address)": {
        "details": "Transfers ownership of the contract to a new account (`newOwner`). Can only be called by the current owner."
      }
    },
    "version": 1
  },
  "userdoc": {
    "kind": "user",
    "methods": {},
    "version": 1
  }
}