{
  "contractName": "ERC721AMock",
  "abi": [
    {
      "inputs": [],
      "stateMutability": "nonpayable",
      "type": "constructor"
    },
    {
      "inputs": [],
      "name": "ApprovalCallerNotOwnerNorApproved",
      "type": "error"
    },
    {
      "inputs": [],
      "name": "ApprovalQueryForNonexistentToken",
      "type": "error"
    },
    {
      "inputs": [],
      "name": "ApprovalToCurrentOwner",
      "type": "error"
    },
    {
      "inputs": [],
      "name": "ApproveToCaller",
      "type": "error"
    },
    {
      "inputs": [],
      "name": "AuxQueryForZeroAddress",
      "type": "error"
    },
    {
      "inputs": [],
      "name": "BalanceQueryForZeroAddress",
      "type": "error"
    },
    {
      "inputs": [],
      "name": "MintToZeroAddress",
      "type": "error"
    },
    {
      "inputs": [],
      "name": "MintZeroQuantity",
      "type": "error"
    },
    {
      "inputs": [],
      "name": "MintedQueryForZeroAddress",
      "type": "error"
    },
    {
      "inputs": [],
      "name": "OwnerQueryForNonexistentToken",
      "type": "error"
    },
    {
      "inputs": [],
      "name": "TransferCallerNotOwnerNorApproved",
      "type": "error"
    },
    {
      "inputs": [],
      "name": "TransferFromIncorrectOwner",
      "type": "error"
    },
    {
      "inputs": [],
      "name": "TransferToNonERC721ReceiverImplementer",
      "type": "error"
    },
    {
      "inputs": [],
      "name": "TransferToZeroAddress",
      "type": "error"
    },
    {
      "inputs": [],
      "name": "URIQueryForNonexistentToken",
      "type": "error"
    },
    {
      "anonymous": false,
      "inputs": [
        {
          "indexed": true,
          "internalType": "address",
          "name": "owner",
          "type": "address"
        },
        {
          "indexed": true,
          "internalType": "address",
          "name": "approved",
          "type": "address"
        },
        {
          "indexed": true,
          "internalType": "uint256",
          "name": "tokenId",
          "type": "uint256"
        }
      ],
      "name": "Approval",
      "type": "event"
    },
    {
      "anonymous": false,
      "inputs": [
        {
          "indexed": true,
          "internalType": "address",
          "name": "owner",
          "type": "address"
        },
        {
          "indexed": true,
          "internalType": "address",
          "name": "operator",
          "type": "address"
        },
        {
          "indexed": false,
          "internalType": "bool",
          "name": "approved",
          "type": "bool"
        }
      ],
      "name": "ApprovalForAll",
      "type": "event"
    },
    {
      "anonymous": false,
      "inputs": [
        {
          "indexed": true,
          "internalType": "address",
          "name": "from",
          "type": "address"
        },
        {
          "indexed": true,
          "internalType": "address",
          "name": "to",
          "type": "address"
        },
        {
          "indexed": true,
          "internalType": "uint256",
          "name": "tokenId",
          "type": "uint256"
        }
      ],
      "name": "Transfer",
      "type": "event"
    },
    {
      "inputs": [
        {
          "internalType": "address",
          "name": "to",
          "type": "address"
        },
        {
          "internalType": "uint256",
          "name": "tokenId",
          "type": "uint256"
        }
      ],
      "name": "approve",
      "outputs": [],
      "stateMutability": "nonpayable",
      "type": "function"
    },
    {
      "inputs": [
        {
          "internalType": "address",
          "name": "owner",
          "type": "address"
        }
      ],
      "name": "balanceOf",
      "outputs": [
        {
          "internalType": "uint256",
          "name": "",
          "type": "uint256"
        }
      ],
      "stateMutability": "view",
      "type": "function"
    },
    {
      "inputs": [
        {
          "internalType": "uint256",
          "name": "tokenId",
          "type": "uint256"
        }
      ],
      "name": "getApproved",
      "outputs": [
        {
          "internalType": "address",
          "name": "",
          "type": "address"
        }
      ],
      "stateMutability": "view",
      "type": "function"
    },
    {
      "inputs": [
        {
          "internalType": "address",
          "name": "owner",
          "type": "address"
        },
        {
          "internalType": "address",
          "name": "operator",
          "type": "address"
        }
      ],
      "name": "isApprovedForAll",
      "outputs": [
        {
          "internalType": "bool",
          "name": "",
          "type": "bool"
        }
      ],
      "stateMutability": "view",
      "type": "function"
    },
    {
      "inputs": [],
      "name": "name",
      "outputs": [
        {
          "internalType": "string",
          "name": "",
          "type": "string"
        }
      ],
      "stateMutability": "view",
      "type": "function"
    },
    {
      "inputs": [
        {
          "internalType": "uint256",
          "name": "tokenId",
          "type": "uint256"
        }
      ],
      "name": "ownerOf",
      "outputs": [
        {
          "internalType": "address",
          "name": "",
          "type": "address"
        }
      ],
      "stateMutability": "view",
      "type": "function"
    },
    {
      "inputs": [
        {
          "internalType": "address",
          "name": "from",
          "type": "address"
        },
        {
          "internalType": "address",
          "name": "to",
          "type": "address"
        },
        {
          "internalType": "uint256",
          "name": "tokenId",
          "type": "uint256"
        }
      ],
      "name": "safeTransferFrom",
      "outputs": [],
      "stateMutability": "nonpayable",
      "type": "function"
    },
    {
      "inputs": [
        {
          "internalType": "address",
          "name": "from",
          "type": "address"
        },
        {
          "internalType": "address",
          "name": "to",
          "type": "address"
        },
        {
          "internalType": "uint256",
          "name": "tokenId",
          "type": "uint256"
        },
        {
          "internalType": "bytes",
          "name": "_data",
          "type": "bytes"
        }
      ],
      "name": "safeTransferFrom",
      "outputs": [],
      "stateMutability": "nonpayable",
      "type": "function"
    },
    {
      "inputs": [
        {
          "internalType": "address",
          "name": "operator",
          "type": "address"
        },
        {
          "internalType": "bool",
          "name": "approved",
          "type": "bool"
        }
      ],
      "name": "setApprovalForAll",
      "outputs": [],
      "stateMutability": "nonpayable",
      "type": "function"
    },
    {
      "inputs": [
        {
          "internalType": "bytes4",
          "name": "interfaceId",
          "type": "bytes4"
        }
      ],
      "name": "supportsInterface",
      "outputs": [
        {
          "internalType": "bool",
          "name": "",
          "type": "bool"
        }
      ],
      "stateMutability": "view",
      "type": "function"
    },
    {
      "inputs": [],
      "name": "symbol",
      "outputs": [
        {
          "internalType": "string",
          "name": "",
          "type": "string"
        }
      ],
      "stateMutability": "view",
      "type": "function"
    },
    {
      "inputs": [
        {
          "internalType": "uint256",
          "name": "tokenId",
          "type": "uint256"
        }
      ],
      "name": "tokenURI",
      "outputs": [
        {
          "internalType": "string",
          "name": "",
          "type": "string"
        }
      ],
      "stateMutability": "view",
      "type": "function"
    },
    {
      "inputs": [],
      "name": "totalSupply",
      "outputs": [
        {
          "internalType": "uint256",
          "name": "",
          "type": "uint256"
        }
      ],
      "stateMutability": "view",
      "type": "function"
    },
    {
      "inputs": [
        {
          "internalType": "address",
          "name": "from",
          "type": "address"
        },
        {
          "internalType": "address",
          "name": "to",
          "type": "address"
        },
        {
          "internalType": "uint256",
          "name": "tokenId",
          "type": "uint256"
        }
      ],
      "name": "transferFrom",
      "outputs": [],
      "stateMutability": "nonpayable",
      "type": "function"
    },
    {
      "inputs": [
        {
          "internalType": "address",
          "name": "owner",
          "type": "address"
        }
      ],
      "name": "numberMinted",
      "outputs": [
        {
          "internalType": "uint256",
          "name": "",
          "type": "uint256"
        }
      ],
      "stateMutability": "view",
      "type": "function"
    },
    {
      "inputs": [],
      "name": "totalMinted",
      "outputs": [
        {
          "internalType": "uint256",
          "name": "",
          "type": "uint256"
        }
      ],
      "stateMutability": "view",
      "type": "function"
    },
    {
      "inputs": [
        {
          "internalType": "address",
          "name": "owner",
          "type": "address"
        }
      ],
      "name": "getAux",
      "outputs": [
        {
          "internalType": "uint64",
          "name": "",
          "type": "uint64"
        }
      ],
      "stateMutability": "view",
      "type": "function"
    },
    {
      "inputs": [
        {
          "internalType": "address",
          "name": "owner",
          "type": "address"
        },
        {
          "internalType": "uint64",
          "name": "aux",
          "type": "uint64"
        }
      ],
      "name": "setAux",
      "outputs": [],
      "stateMutability": "nonpayable",
      "type": "function"
    },
    {
      "inputs": [],
      "name": "baseURI",
      "outputs": [
        {
          "internalType": "string",
          "name": "",
          "type": "string"
        }
      ],
      "stateMutability": "view",
      "type": "function"
    },
    {
      "inputs": [
        {
          "internalType": "uint256",
          "name": "tokenId",
          "type": "uint256"
        }
      ],
      "name": "exists",
      "outputs": [
        {
          "internalType": "bool",
          "name": "",
          "type": "bool"
        }
      ],
      "stateMutability": "view",
      "type": "function"
    },
    {
      "inputs": [
        {
          "internalType": "address",
          "name": "to",
          "type": "address"
        },
        {
          "internalType": "uint256",
          "name": "quantity",
          "type": "uint256"
        },
        {
          "internalType": "bytes",
          "name": "_data",
          "type": "bytes"
        }
      ],
      "name": "safeMint",
      "outputs": [],
      "stateMutability": "nonpayable",
      "type": "function"
    },
    {
      "inputs": [
        {
          "internalType": "address",
          "name": "to",
          "type": "address"
        },
        {
          "internalType": "uint256",
          "name": "quantity",
          "type": "uint256"
        }
      ],
      "name": "safeMint",
      "outputs": [],
      "stateMutability": "nonpayable",
      "type": "function"
    },
    {
      "inputs": [
        {
          "internalType": "address",
          "name": "to",
          "type": "address"
        },
        {
          "internalType": "uint256",
          "name": "quantity",
          "type": "uint256"
        },
        {
          "internalType": "bytes",
          "name": "_data",
          "type": "bytes"
        },
        {
          "internalType": "bool",
          "name": "safe",
          "type": "bool"
        }
      ],
      "name": "mint",
      "outputs": [],
      "stateMutability": "nonpayable",
      "type": "function"
    }
  ],
  "bytecode": "0x60806040523480156200001157600080fd5b506040518060400160405280600781526020017f42414d66657273000000000000000000000000000000000000000000000000008152506040518060400160405280600781526020017f42414d4645525300000000000000000000000000000000000000000000000000815250816002908051906020019062000096929190620000d3565b508060039080519060200190620000af929190620000d3565b50620000c0620000ce60201b60201c565b6000819055505050620001e8565b600090565b828054620000e190620001b2565b90600052602060002090601f01602090048101928262000105576000855562000151565b82601f106200012057805160ff191683800117855562000151565b8280016001018555821562000151579182015b828111156200015057825182559160200191906001019062000133565b5b50905062000160919062000164565b5090565b5b808211156200017f57600081600090555060010162000165565b5090565b7f4e487b7100000000000000000000000000000000000000000000000000000000600052602260045260246000fd5b60006002820490506001821680620001cb57607f821691505b60208210811415620001e257620001e162000183565b5b50919050565b612a9f80620001f86000396000f3fe608060405234801561001057600080fd5b506004361061014d5760003560e01c806370a08231116100c3578063ad9df9c71161007c578063ad9df9c71461039c578063b88d4fde146103b8578063bf0b175e146103d4578063c87b56dd14610404578063dc33e68114610434578063e985e9c5146104645761014d565b806370a08231146102dc5780638832e6e31461030c57806395d89b4114610328578063a144819414610346578063a22cb46514610362578063a2309ff81461037e5761014d565b806323b872dd1161011557806323b872dd1461020a57806342842e0e14610226578063453ab141146102425780634f558e791461025e5780636352211e1461028e5780636c0360eb146102be5761014d565b806301ffc9a71461015257806306fdde0314610182578063081812fc146101a0578063095ea7b3146101d057806318160ddd146101ec575b600080fd5b61016c60048036038101906101679190612010565b610494565b6040516101799190612058565b60405180910390f35b61018a610576565b604051610197919061210c565b60405180910390f35b6101ba60048036038101906101b59190612164565b610608565b6040516101c791906121d2565b60405180910390f35b6101ea60048036038101906101e59190612219565b610684565b005b6101f461078f565b6040516102019190612268565b60405180910390f35b610224600480360381019061021f9190612283565b6107a6565b005b610240600480360381019061023b9190612283565b6107b6565b005b61025c60048036038101906102579190612316565b6107d6565b005b61027860048036038101906102739190612164565b6107e4565b6040516102859190612058565b60405180910390f35b6102a860048036038101906102a39190612164565b6107f6565b6040516102b591906121d2565b60405180910390f35b6102c661080c565b6040516102d3919061210c565b60405180910390f35b6102f660048036038101906102f19190612356565b61081b565b6040516103039190612268565b60405180910390f35b610326600480360381019061032191906124b8565b6108eb565b005b6103306108fb565b60405161033d919061210c565b60405180910390f35b610360600480360381019061035b9190612219565b61098d565b005b61037c60048036038101906103779190612553565b61099b565b005b610386610b13565b6040516103939190612268565b60405180910390f35b6103b660048036038101906103b19190612593565b610b22565b005b6103d260048036038101906103cd9190612616565b610b34565b005b6103ee60048036038101906103e99190612356565b610bb0565b6040516103fb91906126a8565b60405180910390f35b61041e60048036038101906104199190612164565b610bc2565b60405161042b919061210c565b60405180910390f35b61044e60048036038101906104499190612356565b610c61565b60405161045b9190612268565b60405180910390f35b61047e600480360381019061047991906126c3565b610c73565b60405161048b9190612058565b60405180910390f35b60007f80ac58cd000000000000000000000000000000000000000000000000000000007bffffffffffffffffffffffffffffffffffffffffffffffffffffffff1916827bffffffffffffffffffffffffffffffffffffffffffffffffffffffff1916148061055f57507f5b5e139f000000000000000000000000000000000000000000000000000000007bffffffffffffffffffffffffffffffffffffffffffffffffffffffff1916827bffffffffffffffffffffffffffffffffffffffffffffffffffffffff1916145b8061056f575061056e82610d07565b5b9050919050565b60606002805461058590612732565b80601f01602080910402602001604051908101604052809291908181526020018280546105b190612732565b80156105fe5780601f106105d3576101008083540402835291602001916105fe565b820191906000526020600020905b8154815290600101906020018083116105e157829003601f168201915b5050505050905090565b600061061382610d71565b610649576040517fcf4700e400000000000000000000000000000000000000000000000000000000815260040160405180910390fd5b6006600083815260200190815260200160002060009054906101000a900473ffffffffffffffffffffffffffffffffffffffff169050919050565b600061068f826107f6565b90508073ffffffffffffffffffffffffffffffffffffffff168373ffffffffffffffffffffffffffffffffffffffff1614156106f7576040517f943f7b8c00000000000000000000000000000000000000000000000000000000815260040160405180910390fd5b8073ffffffffffffffffffffffffffffffffffffffff16610716610dbf565b73ffffffffffffffffffffffffffffffffffffffff1614158015610748575061074681610741610dbf565b610c73565b155b1561077f576040517fcfb3b94200000000000000000000000000000000000000000000000000000000815260040160405180910390fd5b61078a838383610dc7565b505050565b6000610799610e79565b6001546000540303905090565b6107b1838383610e7e565b505050565b6107d183838360405180602001604052806000815250610b34565b505050565b6107e0828261136f565b5050565b60006107ef82610d71565b9050919050565b600061080182611443565b600001519050919050565b60606108166116d2565b905090565b60008073ffffffffffffffffffffffffffffffffffffffff168273ffffffffffffffffffffffffffffffffffffffff161415610883576040517f8f4eb60400000000000000000000000000000000000000000000000000000000815260040160405180910390fd5b600560008373ffffffffffffffffffffffffffffffffffffffff1673ffffffffffffffffffffffffffffffffffffffff16815260200190815260200160002060000160009054906101000a900467ffffffffffffffff1667ffffffffffffffff169050919050565b6108f68383836116e9565b505050565b60606003805461090a90612732565b80601f016020809104026020016040519081016040528092919081815260200182805461093690612732565b80156109835780601f1061095857610100808354040283529160200191610983565b820191906000526020600020905b81548152906001019060200180831161096657829003601f168201915b5050505050905090565b61099782826116fb565b5050565b6109a3610dbf565b73ffffffffffffffffffffffffffffffffffffffff168273ffffffffffffffffffffffffffffffffffffffff161415610a08576040517fb06307db00000000000000000000000000000000000000000000000000000000815260040160405180910390fd5b8060076000610a15610dbf565b73ffffffffffffffffffffffffffffffffffffffff1673ffffffffffffffffffffffffffffffffffffffff16815260200190815260200160002060008473ffffffffffffffffffffffffffffffffffffffff1673ffffffffffffffffffffffffffffffffffffffff16815260200190815260200160002060006101000a81548160ff0219169083151502179055508173ffffffffffffffffffffffffffffffffffffffff16610ac2610dbf565b73ffffffffffffffffffffffffffffffffffffffff167f17307eab39ab6107e8899845ad3d59bd9653f200f220920489ca2b5937696c3183604051610b079190612058565b60405180910390a35050565b6000610b1d611719565b905090565b610b2e8484848461172c565b50505050565b610b3f848484610e7e565b610b5e8373ffffffffffffffffffffffffffffffffffffffff16611afa565b8015610b735750610b7184848484611b0d565b155b15610baa576040517fd1a57ed600000000000000000000000000000000000000000000000000000000815260040160405180910390fd5b50505050565b6000610bbb82611c5e565b9050919050565b6060610bcd82610d71565b610c03576040517fa14c4b5000000000000000000000000000000000000000000000000000000000815260040160405180910390fd5b6000610c0d6116d2565b9050600081511415610c2e5760405180602001604052806000815250610c59565b80610c3884611d24565b604051602001610c499291906127a0565b6040516020818303038152906040525b915050919050565b6000610c6c82611e85565b9050919050565b6000600760008473ffffffffffffffffffffffffffffffffffffffff1673ffffffffffffffffffffffffffffffffffffffff16815260200190815260200160002060008373ffffffffffffffffffffffffffffffffffffffff1673ffffffffffffffffffffffffffffffffffffffff16815260200190815260200160002060009054906101000a900460ff16905092915050565b60007f01ffc9a7000000000000000000000000000000000000000000000000000000007bffffffffffffffffffffffffffffffffffffffffffffffffffffffff1916827bffffffffffffffffffffffffffffffffffffffffffffffffffffffff1916149050919050565b600081610d7c610e79565b11158015610d8b575060005482105b8015610db8575060046000838152602001908152602001600020600001601c9054906101000a900460ff16155b9050919050565b600033905090565b826006600084815260200190815260200160002060006101000a81548173ffffffffffffffffffffffffffffffffffffffff021916908373ffffffffffffffffffffffffffffffffffffffff160217905550818373ffffffffffffffffffffffffffffffffffffffff168273ffffffffffffffffffffffffffffffffffffffff167f8c5be1e5ebec7d5bd14f71427d1e84f3dd0314c0f7b2291e5b200ac8c7c3b92560405160405180910390a4505050565b600090565b6000610e8982611443565b90506000816000015173ffffffffffffffffffffffffffffffffffffffff16610eb0610dbf565b73ffffffffffffffffffffffffffffffffffffffff161480610ee35750610ee28260000151610edd610dbf565b610c73565b5b80610f285750610ef1610dbf565b73ffffffffffffffffffffffffffffffffffffffff16610f1084610608565b73ffffffffffffffffffffffffffffffffffffffff16145b905080610f61576040517f59c896be00000000000000000000000000000000000000000000000000000000815260040160405180910390fd5b8473ffffffffffffffffffffffffffffffffffffffff16826000015173ffffffffffffffffffffffffffffffffffffffff1614610fca576040517fa114810000000000000000000000000000000000000000000000000000000000815260040160405180910390fd5b600073ffffffffffffffffffffffffffffffffffffffff168473ffffffffffffffffffffffffffffffffffffffff161415611031576040517fea553b3400000000000000000000000000000000000000000000000000000000815260040160405180910390fd5b61103e8585856001611f55565b61104e6000848460000151610dc7565b6001600560008773ffffffffffffffffffffffffffffffffffffffff1673ffffffffffffffffffffffffffffffffffffffff16815260200190815260200160002060000160008282829054906101000a900467ffffffffffffffff160392506101000a81548167ffffffffffffffff021916908367ffffffffffffffff1602179055506001600560008673ffffffffffffffffffffffffffffffffffffffff1673ffffffffffffffffffffffffffffffffffffffff16815260200190815260200160002060000160008282829054906101000a900467ffffffffffffffff160192506101000a81548167ffffffffffffffff021916908367ffffffffffffffff160217905550836004600085815260200190815260200160002060000160006101000a81548173ffffffffffffffffffffffffffffffffffffffff021916908373ffffffffffffffffffffffffffffffffffffffff160217905550426004600085815260200190815260200160002060000160146101000a81548167ffffffffffffffff021916908367ffffffffffffffff1602179055506000600184019050600073ffffffffffffffffffffffffffffffffffffffff166004600083815260200190815260200160002060000160009054906101000a900473ffffffffffffffffffffffffffffffffffffffff1673ffffffffffffffffffffffffffffffffffffffff1614156112ff576000548110156112fe5782600001516004600083815260200190815260200160002060000160006101000a81548173ffffffffffffffffffffffffffffffffffffffff021916908373ffffffffffffffffffffffffffffffffffffffff16021790555082602001516004600083815260200190815260200160002060000160146101000a81548167ffffffffffffffff021916908367ffffffffffffffff1602179055505b5b50828473ffffffffffffffffffffffffffffffffffffffff168673ffffffffffffffffffffffffffffffffffffffff167fddf252ad1be2c89b69c2b068fc378daa952ba7f163c4a11628f55a4df523b3ef60405160405180910390a46113688585856001611f5b565b5050505050565b600073ffffffffffffffffffffffffffffffffffffffff168273ffffffffffffffffffffffffffffffffffffffff1614156113d6576040517fac3727ba00000000000000000000000000000000000000000000000000000000815260040160405180910390fd5b80600560008473ffffffffffffffffffffffffffffffffffffffff1673ffffffffffffffffffffffffffffffffffffffff16815260200190815260200160002060000160186101000a81548167ffffffffffffffff021916908367ffffffffffffffff1602179055505050565b61144b611f61565b600082905080611459610e79565b11158015611468575060005481105b1561169b576000600460008381526020019081526020016000206040518060600160405290816000820160009054906101000a900473ffffffffffffffffffffffffffffffffffffffff1673ffffffffffffffffffffffffffffffffffffffff1673ffffffffffffffffffffffffffffffffffffffff1681526020016000820160149054906101000a900467ffffffffffffffff1667ffffffffffffffff1667ffffffffffffffff16815260200160008201601c9054906101000a900460ff1615151515815250509050806040015161169957600073ffffffffffffffffffffffffffffffffffffffff16816000015173ffffffffffffffffffffffffffffffffffffffff161461157d5780925050506116cd565b5b60011561169857818060019003925050600460008381526020019081526020016000206040518060600160405290816000820160009054906101000a900473ffffffffffffffffffffffffffffffffffffffff1673ffffffffffffffffffffffffffffffffffffffff1673ffffffffffffffffffffffffffffffffffffffff1681526020016000820160149054906101000a900467ffffffffffffffff1667ffffffffffffffff1667ffffffffffffffff16815260200160008201601c9054906101000a900460ff1615151515815250509050600073ffffffffffffffffffffffffffffffffffffffff16816000015173ffffffffffffffffffffffffffffffffffffffff16146116935780925050506116cd565b61157e565b5b505b6040517fdf2d9b4200000000000000000000000000000000000000000000000000000000815260040160405180910390fd5b919050565b606060405180602001604052806000815250905090565b6116f6838383600161172c565b505050565b6117158282604051806020016040528060008152506116e9565b5050565b6000611723610e79565b60005403905090565b600080549050600073ffffffffffffffffffffffffffffffffffffffff168573ffffffffffffffffffffffffffffffffffffffff161415611799576040517f2e07630000000000000000000000000000000000000000000000000000000000815260040160405180910390fd5b60008414156117d4576040517fb562e8dd00000000000000000000000000000000000000000000000000000000815260040160405180910390fd5b6117e16000868387611f55565b83600560008773ffffffffffffffffffffffffffffffffffffffff1673ffffffffffffffffffffffffffffffffffffffff16815260200190815260200160002060000160008282829054906101000a900467ffffffffffffffff160192506101000a81548167ffffffffffffffff021916908367ffffffffffffffff16021790555083600560008773ffffffffffffffffffffffffffffffffffffffff1673ffffffffffffffffffffffffffffffffffffffff16815260200190815260200160002060000160088282829054906101000a900467ffffffffffffffff160192506101000a81548167ffffffffffffffff021916908367ffffffffffffffff160217905550846004600083815260200190815260200160002060000160006101000a81548173ffffffffffffffffffffffffffffffffffffffff021916908373ffffffffffffffffffffffffffffffffffffffff160217905550426004600083815260200190815260200160002060000160146101000a81548167ffffffffffffffff021916908367ffffffffffffffff1602179055506000819050600085820190508380156119ab57506119aa8773ffffffffffffffffffffffffffffffffffffffff16611afa565b5b15611a71575b818773ffffffffffffffffffffffffffffffffffffffff16600073ffffffffffffffffffffffffffffffffffffffff167fddf252ad1be2c89b69c2b068fc378daa952ba7f163c4a11628f55a4df523b3ef60405160405180910390a4611a206000888480600101955088611b0d565b611a56576040517fd1a57ed600000000000000000000000000000000000000000000000000000000815260040160405180910390fd5b808214156119b1578260005414611a6c57600080fd5b611add565b5b818060010192508773ffffffffffffffffffffffffffffffffffffffff16600073ffffffffffffffffffffffffffffffffffffffff167fddf252ad1be2c89b69c2b068fc378daa952ba7f163c4a11628f55a4df523b3ef60405160405180910390a480821415611a72575b816000819055505050611af36000868387611f5b565b5050505050565b600080823b905060008111915050919050565b60008373ffffffffffffffffffffffffffffffffffffffff1663150b7a02611b33610dbf565b8786866040518563ffffffff1660e01b8152600401611b559493929190612819565b6020604051808303816000875af1925050508015611b9157506040513d601f19601f82011682018060405250810190611b8e919061287a565b60015b611c0b573d8060008114611bc1576040519150601f19603f3d011682016040523d82523d6000602084013e611bc6565b606091505b50600081511415611c03576040517fd1a57ed600000000000000000000000000000000000000000000000000000000815260040160405180910390fd5b805181602001fd5b63150b7a0260e01b7bffffffffffffffffffffffffffffffffffffffffffffffffffffffff1916817bffffffffffffffffffffffffffffffffffffffffffffffffffffffff191614915050949350505050565b60008073ffffffffffffffffffffffffffffffffffffffff168273ffffffffffffffffffffffffffffffffffffffff161415611cc6576040517fac3727ba00000000000000000000000000000000000000000000000000000000815260040160405180910390fd5b600560008373ffffffffffffffffffffffffffffffffffffffff1673ffffffffffffffffffffffffffffffffffffffff16815260200190815260200160002060000160189054906101000a900467ffffffffffffffff169050919050565b60606000821415611d6c576040518060400160405280600181526020017f30000000000000000000000000000000000000000000000000000000000000008152509050611e80565b600082905060005b60008214611d9e578080611d87906128d6565b915050600a82611d97919061294e565b9150611d74565b60008167ffffffffffffffff811115611dba57611db961238d565b5b6040519080825280601f01601f191660200182016040528015611dec5781602001600182028036833780820191505090505b5090505b60008514611e7957600182611e05919061297f565b9150600a85611e1491906129b3565b6030611e2091906129e4565b60f81b818381518110611e3657611e35612a3a565b5b60200101907effffffffffffffffffffffffffffffffffffffffffffffffffffffffffffff1916908160001a905350600a85611e72919061294e565b9450611df0565b8093505050505b919050565b60008073ffffffffffffffffffffffffffffffffffffffff168273ffffffffffffffffffffffffffffffffffffffff161415611eed576040517f35ebb31900000000000000000000000000000000000000000000000000000000815260040160405180910390fd5b600560008373ffffffffffffffffffffffffffffffffffffffff1673ffffffffffffffffffffffffffffffffffffffff16815260200190815260200160002060000160089054906101000a900467ffffffffffffffff1667ffffffffffffffff169050919050565b50505050565b50505050565b6040518060600160405280600073ffffffffffffffffffffffffffffffffffffffff168152602001600067ffffffffffffffff1681526020016000151581525090565b6000604051905090565b600080fd5b600080fd5b60007fffffffff0000000000000000000000000000000000000000000000000000000082169050919050565b611fed81611fb8565b8114611ff857600080fd5b50565b60008135905061200a81611fe4565b92915050565b60006020828403121561202657612025611fae565b5b600061203484828501611ffb565b91505092915050565b60008115159050919050565b6120528161203d565b82525050565b600060208201905061206d6000830184612049565b92915050565b600081519050919050565b600082825260208201905092915050565b60005b838110156120ad578082015181840152602081019050612092565b838111156120bc576000848401525b50505050565b6000601f19601f8301169050919050565b60006120de82612073565b6120e8818561207e565b93506120f881856020860161208f565b612101816120c2565b840191505092915050565b6000602082019050818103600083015261212681846120d3565b905092915050565b6000819050919050565b6121418161212e565b811461214c57600080fd5b50565b60008135905061215e81612138565b92915050565b60006020828403121561217a57612179611fae565b5b60006121888482850161214f565b91505092915050565b600073ffffffffffffffffffffffffffffffffffffffff82169050919050565b60006121bc82612191565b9050919050565b6121cc816121b1565b82525050565b60006020820190506121e760008301846121c3565b92915050565b6121f6816121b1565b811461220157600080fd5b50565b600081359050612213816121ed565b92915050565b600080604083850312156122305761222f611fae565b5b600061223e85828601612204565b925050602061224f8582860161214f565b9150509250929050565b6122628161212e565b82525050565b600060208201905061227d6000830184612259565b92915050565b60008060006060848603121561229c5761229b611fae565b5b60006122aa86828701612204565b93505060206122bb86828701612204565b92505060406122cc8682870161214f565b9150509250925092565b600067ffffffffffffffff82169050919050565b6122f3816122d6565b81146122fe57600080fd5b50565b600081359050612310816122ea565b92915050565b6000806040838503121561232d5761232c611fae565b5b600061233b85828601612204565b925050602061234c85828601612301565b9150509250929050565b60006020828403121561236c5761236b611fae565b5b600061237a84828501612204565b91505092915050565b600080fd5b600080fd5b7f4e487b7100000000000000000000000000000000000000000000000000000000600052604160045260246000fd5b6123c5826120c2565b810181811067ffffffffffffffff821117156123e4576123e361238d565b5b80604052505050565b60006123f7611fa4565b905061240382826123bc565b919050565b600067ffffffffffffffff8211156124235761242261238d565b5b61242c826120c2565b9050602081019050919050565b82818337600083830152505050565b600061245b61245684612408565b6123ed565b90508281526020810184848401111561247757612476612388565b5b612482848285612439565b509392505050565b600082601f83011261249f5761249e612383565b5b81356124af848260208601612448565b91505092915050565b6000806000606084860312156124d1576124d0611fae565b5b60006124df86828701612204565b93505060206124f08682870161214f565b925050604084013567ffffffffffffffff81111561251157612510611fb3565b5b61251d8682870161248a565b9150509250925092565b6125308161203d565b811461253b57600080fd5b50565b60008135905061254d81612527565b92915050565b6000806040838503121561256a57612569611fae565b5b600061257885828601612204565b92505060206125898582860161253e565b9150509250929050565b600080600080608085870312156125ad576125ac611fae565b5b60006125bb87828801612204565b94505060206125cc8782880161214f565b935050604085013567ffffffffffffffff8111156125ed576125ec611fb3565b5b6125f98782880161248a565b925050606061260a8782880161253e565b91505092959194509250565b600080600080608085870312156126305761262f611fae565b5b600061263e87828801612204565b945050602061264f87828801612204565b93505060406126608782880161214f565b925050606085013567ffffffffffffffff81111561268157612680611fb3565b5b61268d8782880161248a565b91505092959194509250565b6126a2816122d6565b82525050565b60006020820190506126bd6000830184612699565b92915050565b600080604083850312156126da576126d9611fae565b5b60006126e885828601612204565b92505060206126f985828601612204565b9150509250929050565b7f4e487b7100000000000000000000000000000000000000000000000000000000600052602260045260246000fd5b6000600282049050600182168061274a57607f821691505b6020821081141561275e5761275d612703565b5b50919050565b600081905092915050565b600061277a82612073565b6127848185612764565b935061279481856020860161208f565b80840191505092915050565b60006127ac828561276f565b91506127b8828461276f565b91508190509392505050565b600081519050919050565b600082825260208201905092915050565b60006127eb826127c4565b6127f581856127cf565b935061280581856020860161208f565b61280e816120c2565b840191505092915050565b600060808201905061282e60008301876121c3565b61283b60208301866121c3565b6128486040830185612259565b818103606083015261285a81846127e0565b905095945050505050565b60008151905061287481611fe4565b92915050565b6000602082840312156128905761288f611fae565b5b600061289e84828501612865565b91505092915050565b7f4e487b7100000000000000000000000000000000000000000000000000000000600052601160045260246000fd5b60006128e18261212e565b91507fffffffffffffffffffffffffffffffffffffffffffffffffffffffffffffffff821415612914576129136128a7565b5b600182019050919050565b7f4e487b7100000000000000000000000000000000000000000000000000000000600052601260045260246000fd5b60006129598261212e565b91506129648361212e565b9250826129745761297361291f565b5b828204905092915050565b600061298a8261212e565b91506129958361212e565b9250828210156129a8576129a76128a7565b5b828203905092915050565b60006129be8261212e565b91506129c98361212e565b9250826129d9576129d861291f565b5b828206905092915050565b60006129ef8261212e565b91506129fa8361212e565b9250827fffffffffffffffffffffffffffffffffffffffffffffffffffffffffffffffff03821115612a2f57612a2e6128a7565b5b828201905092915050565b7f4e487b7100000000000000000000000000000000000000000000000000000000600052603260045260246000fdfea26469706673582212206a19e1c61987a97c66645086fd254e3c20427f873fe2e3c482f0fef449d165de64736f6c634300080a0033",
  "immutableReferences": {},
  "source": "// SPDX-License-Identifier: MIT\n// Creators: Chiru Labs\n\npragma solidity ^0.8.4;\n\nimport \"./ERC721A.sol\";\n\ncontract ERC721AMock is ERC721A {\n    constructor() ERC721A(\"BAMfers\", \"BAMFERS\") {}\n\n    function numberMinted(address owner) public view returns (uint256) {\n        return _numberMinted(owner);\n    }\n\n    function totalMinted() public view returns (uint256) {\n        return _totalMinted();\n    }\n\n    function getAux(address owner) public view returns (uint64) {\n        return _getAux(owner);\n    }\n\n    function setAux(address owner, uint64 aux) public {\n        _setAux(owner, aux);\n    }\n\n    function baseURI() public view returns (string memory) {\n        return _baseURI();\n    }\n\n    function exists(uint256 tokenId) public view returns (bool) {\n        return _exists(tokenId);\n    }\n\n    function safeMint(address to, uint256 quantity) public {\n        _safeMint(to, quantity);\n    }\n\n    function safeMint(\n        address to,\n        uint256 quantity,\n        bytes memory _data\n    ) public {\n        _safeMint(to, quantity, _data);\n    }\n\n    function mint(\n        address to,\n        uint256 quantity,\n        bytes memory _data,\n        bool safe\n    ) public {\n        _mint(to, quantity, _data, safe);\n    }\n}\n",
  "sourcePath": "/Volumes/toffysoft/toffysoft.inc/bam/bam-contract/contracts/BAMfers.sol",
  "compiler": {
    "name": "solc",
    "version": "0.8.10+commit.fc410830.Emscripten.clang"
  },
  "schemaVersion": "3.4.6",
  "updatedAt": "2022-03-16T14:25:11.669Z",
  "devdoc": {
    "kind": "dev",
    "methods": {
      "approve(address,uint256)": {
        "details": "See {IERC721-approve}."
      },
      "balanceOf(address)": {
        "details": "See {IERC721-balanceOf}."
      },
      "getApproved(uint256)": {
        "details": "See {IERC721-getApproved}."
      },
      "isApprovedForAll(address,address)": {
        "details": "See {IERC721-isApprovedForAll}."
      },
      "name()": {
        "details": "See {IERC721Metadata-name}."
      },
      "ownerOf(uint256)": {
        "details": "See {IERC721-ownerOf}."
      },
      "safeTransferFrom(address,address,uint256)": {
        "details": "See {IERC721-safeTransferFrom}."
      },
      "safeTransferFrom(address,address,uint256,bytes)": {
        "details": "See {IERC721-safeTransferFrom}."
      },
      "setApprovalForAll(address,bool)": {
        "details": "See {IERC721-setApprovalForAll}."
      },
      "supportsInterface(bytes4)": {
        "details": "See {IERC165-supportsInterface}."
      },
      "symbol()": {
        "details": "See {IERC721Metadata-symbol}."
      },
      "tokenURI(uint256)": {
        "details": "See {IERC721Metadata-tokenURI}."
      },
      "totalSupply()": {
        "details": "See {IERC721Enumerable-totalSupply}.Burned tokens are calculated here, use _totalMinted() if you want to count just minted tokens."
      },
      "transferFrom(address,address,uint256)": {
        "details": "See {IERC721-transferFrom}."
      }
    },
    "version": 1
  },
  "userdoc": {
    "kind": "user",
    "methods": {},
    "version": 1
  }
}