{
  "contractName": "SimpleNftLowerGas",
  "abi": [
    {
      "inputs": [],
      "stateMutability": "nonpayable",
      "type": "constructor"
    },
    {
      "anonymous": false,
      "inputs": [
        {
          "indexed": true,
          "internalType": "address",
          "name": "owner",
          "type": "address"
        },
        {
          "indexed": true,
          "internalType": "address",
          "name": "approved",
          "type": "address"
        },
        {
          "indexed": true,
          "internalType": "uint256",
          "name": "tokenId",
          "type": "uint256"
        }
      ],
      "name": "Approval",
      "type": "event"
    },
    {
      "anonymous": false,
      "inputs": [
        {
          "indexed": true,
          "internalType": "address",
          "name": "owner",
          "type": "address"
        },
        {
          "indexed": true,
          "internalType": "address",
          "name": "operator",
          "type": "address"
        },
        {
          "indexed": false,
          "internalType": "bool",
          "name": "approved",
          "type": "bool"
        }
      ],
      "name": "ApprovalForAll",
      "type": "event"
    },
    {
      "anonymous": false,
      "inputs": [
        {
          "indexed": true,
          "internalType": "address",
          "name": "previousOwner",
          "type": "address"
        },
        {
          "indexed": true,
          "internalType": "address",
          "name": "newOwner",
          "type": "address"
        }
      ],
      "name": "OwnershipTransferred",
      "type": "event"
    },
    {
      "anonymous": false,
      "inputs": [
        {
          "indexed": true,
          "internalType": "address",
          "name": "from",
          "type": "address"
        },
        {
          "indexed": true,
          "internalType": "address",
          "name": "to",
          "type": "address"
        },
        {
          "indexed": true,
          "internalType": "uint256",
          "name": "tokenId",
          "type": "uint256"
        }
      ],
      "name": "Transfer",
      "type": "event"
    },
    {
      "inputs": [
        {
          "internalType": "address",
          "name": "to",
          "type": "address"
        },
        {
          "internalType": "uint256",
          "name": "tokenId",
          "type": "uint256"
        }
      ],
      "name": "approve",
      "outputs": [],
      "stateMutability": "nonpayable",
      "type": "function"
    },
    {
      "inputs": [
        {
          "internalType": "address",
          "name": "owner",
          "type": "address"
        }
      ],
      "name": "balanceOf",
      "outputs": [
        {
          "internalType": "uint256",
          "name": "",
          "type": "uint256"
        }
      ],
      "stateMutability": "view",
      "type": "function"
    },
    {
      "inputs": [],
      "name": "cost",
      "outputs": [
        {
          "internalType": "uint256",
          "name": "",
          "type": "uint256"
        }
      ],
      "stateMutability": "view",
      "type": "function"
    },
    {
      "inputs": [
        {
          "internalType": "uint256",
          "name": "tokenId",
          "type": "uint256"
        }
      ],
      "name": "getApproved",
      "outputs": [
        {
          "internalType": "address",
          "name": "",
          "type": "address"
        }
      ],
      "stateMutability": "view",
      "type": "function"
    },
    {
      "inputs": [],
      "name": "hiddenMetadataUri",
      "outputs": [
        {
          "internalType": "string",
          "name": "",
          "type": "string"
        }
      ],
      "stateMutability": "view",
      "type": "function"
    },
    {
      "inputs": [
        {
          "internalType": "address",
          "name": "owner",
          "type": "address"
        },
        {
          "internalType": "address",
          "name": "operator",
          "type": "address"
        }
      ],
      "name": "isApprovedForAll",
      "outputs": [
        {
          "internalType": "bool",
          "name": "",
          "type": "bool"
        }
      ],
      "stateMutability": "view",
      "type": "function"
    },
    {
      "inputs": [],
      "name": "maxMintAmountPerTx",
      "outputs": [
        {
          "internalType": "uint256",
          "name": "",
          "type": "uint256"
        }
      ],
      "stateMutability": "view",
      "type": "function"
    },
    {
      "inputs": [],
      "name": "maxSupply",
      "outputs": [
        {
          "internalType": "uint256",
          "name": "",
          "type": "uint256"
        }
      ],
      "stateMutability": "view",
      "type": "function"
    },
    {
      "inputs": [],
      "name": "name",
      "outputs": [
        {
          "internalType": "string",
          "name": "",
          "type": "string"
        }
      ],
      "stateMutability": "view",
      "type": "function"
    },
    {
      "inputs": [],
      "name": "owner",
      "outputs": [
        {
          "internalType": "address",
          "name": "",
          "type": "address"
        }
      ],
      "stateMutability": "view",
      "type": "function"
    },
    {
      "inputs": [
        {
          "internalType": "uint256",
          "name": "tokenId",
          "type": "uint256"
        }
      ],
      "name": "ownerOf",
      "outputs": [
        {
          "internalType": "address",
          "name": "",
          "type": "address"
        }
      ],
      "stateMutability": "view",
      "type": "function"
    },
    {
      "inputs": [],
      "name": "paused",
      "outputs": [
        {
          "internalType": "bool",
          "name": "",
          "type": "bool"
        }
      ],
      "stateMutability": "view",
      "type": "function"
    },
    {
      "inputs": [],
      "name": "renounceOwnership",
      "outputs": [],
      "stateMutability": "nonpayable",
      "type": "function"
    },
    {
      "inputs": [],
      "name": "revealed",
      "outputs": [
        {
          "internalType": "bool",
          "name": "",
          "type": "bool"
        }
      ],
      "stateMutability": "view",
      "type": "function"
    },
    {
      "inputs": [
        {
          "internalType": "address",
          "name": "from",
          "type": "address"
        },
        {
          "internalType": "address",
          "name": "to",
          "type": "address"
        },
        {
          "internalType": "uint256",
          "name": "tokenId",
          "type": "uint256"
        }
      ],
      "name": "safeTransferFrom",
      "outputs": [],
      "stateMutability": "nonpayable",
      "type": "function"
    },
    {
      "inputs": [
        {
          "internalType": "address",
          "name": "from",
          "type": "address"
        },
        {
          "internalType": "address",
          "name": "to",
          "type": "address"
        },
        {
          "internalType": "uint256",
          "name": "tokenId",
          "type": "uint256"
        },
        {
          "internalType": "bytes",
          "name": "_data",
          "type": "bytes"
        }
      ],
      "name": "safeTransferFrom",
      "outputs": [],
      "stateMutability": "nonpayable",
      "type": "function"
    },
    {
      "inputs": [
        {
          "internalType": "address",
          "name": "operator",
          "type": "address"
        },
        {
          "internalType": "bool",
          "name": "approved",
          "type": "bool"
        }
      ],
      "name": "setApprovalForAll",
      "outputs": [],
      "stateMutability": "nonpayable",
      "type": "function"
    },
    {
      "inputs": [
        {
          "internalType": "bytes4",
          "name": "interfaceId",
          "type": "bytes4"
        }
      ],
      "name": "supportsInterface",
      "outputs": [
        {
          "internalType": "bool",
          "name": "",
          "type": "bool"
        }
      ],
      "stateMutability": "view",
      "type": "function"
    },
    {
      "inputs": [],
      "name": "symbol",
      "outputs": [
        {
          "internalType": "string",
          "name": "",
          "type": "string"
        }
      ],
      "stateMutability": "view",
      "type": "function"
    },
    {
      "inputs": [
        {
          "internalType": "address",
          "name": "from",
          "type": "address"
        },
        {
          "internalType": "address",
          "name": "to",
          "type": "address"
        },
        {
          "internalType": "uint256",
          "name": "tokenId",
          "type": "uint256"
        }
      ],
      "name": "transferFrom",
      "outputs": [],
      "stateMutability": "nonpayable",
      "type": "function"
    },
    {
      "inputs": [
        {
          "internalType": "address",
          "name": "newOwner",
          "type": "address"
        }
      ],
      "name": "transferOwnership",
      "outputs": [],
      "stateMutability": "nonpayable",
      "type": "function"
    },
    {
      "inputs": [],
      "name": "uriPrefix",
      "outputs": [
        {
          "internalType": "string",
          "name": "",
          "type": "string"
        }
      ],
      "stateMutability": "view",
      "type": "function"
    },
    {
      "inputs": [],
      "name": "uriSuffix",
      "outputs": [
        {
          "internalType": "string",
          "name": "",
          "type": "string"
        }
      ],
      "stateMutability": "view",
      "type": "function"
    },
    {
      "inputs": [],
      "name": "totalSupply",
      "outputs": [
        {
          "internalType": "uint256",
          "name": "",
          "type": "uint256"
        }
      ],
      "stateMutability": "view",
      "type": "function"
    },
    {
      "inputs": [
        {
          "internalType": "uint256",
          "name": "_mintAmount",
          "type": "uint256"
        }
      ],
      "name": "mint",
      "outputs": [],
      "stateMutability": "payable",
      "type": "function"
    },
    {
      "inputs": [
        {
          "internalType": "uint256",
          "name": "_mintAmount",
          "type": "uint256"
        },
        {
          "internalType": "address",
          "name": "_receiver",
          "type": "address"
        }
      ],
      "name": "mintForAddress",
      "outputs": [],
      "stateMutability": "nonpayable",
      "type": "function"
    },
    {
      "inputs": [
        {
          "internalType": "address",
          "name": "_owner",
          "type": "address"
        }
      ],
      "name": "walletOfOwner",
      "outputs": [
        {
          "internalType": "uint256[]",
          "name": "",
          "type": "uint256[]"
        }
      ],
      "stateMutability": "view",
      "type": "function"
    },
    {
      "inputs": [
        {
          "internalType": "uint256",
          "name": "_tokenId",
          "type": "uint256"
        }
      ],
      "name": "tokenURI",
      "outputs": [
        {
          "internalType": "string",
          "name": "",
          "type": "string"
        }
      ],
      "stateMutability": "view",
      "type": "function"
    },
    {
      "inputs": [
        {
          "internalType": "bool",
          "name": "_state",
          "type": "bool"
        }
      ],
      "name": "setRevealed",
      "outputs": [],
      "stateMutability": "nonpayable",
      "type": "function"
    },
    {
      "inputs": [
        {
          "internalType": "uint256",
          "name": "_cost",
          "type": "uint256"
        }
      ],
      "name": "setCost",
      "outputs": [],
      "stateMutability": "nonpayable",
      "type": "function"
    },
    {
      "inputs": [
        {
          "internalType": "uint256",
          "name": "_maxMintAmountPerTx",
          "type": "uint256"
        }
      ],
      "name": "setMaxMintAmountPerTx",
      "outputs": [],
      "stateMutability": "nonpayable",
      "type": "function"
    },
    {
      "inputs": [
        {
          "internalType": "string",
          "name": "_hiddenMetadataUri",
          "type": "string"
        }
      ],
      "name": "setHiddenMetadataUri",
      "outputs": [],
      "stateMutability": "nonpayable",
      "type": "function"
    },
    {
      "inputs": [
        {
          "internalType": "string",
          "name": "_uriPrefix",
          "type": "string"
        }
      ],
      "name": "setUriPrefix",
      "outputs": [],
      "stateMutability": "nonpayable",
      "type": "function"
    },
    {
      "inputs": [
        {
          "internalType": "string",
          "name": "_uriSuffix",
          "type": "string"
        }
      ],
      "name": "setUriSuffix",
      "outputs": [],
      "stateMutability": "nonpayable",
      "type": "function"
    },
    {
      "inputs": [
        {
          "internalType": "bool",
          "name": "_state",
          "type": "bool"
        }
      ],
      "name": "setPaused",
      "outputs": [],
      "stateMutability": "nonpayable",
      "type": "function"
    },
    {
      "inputs": [],
      "name": "withdraw",
      "outputs": [],
      "stateMutability": "nonpayable",
      "type": "function"
    }
  ],
  "bytecode": "0x608060405260405180602001604052806000815250600990805190602001906200002b9291906200038b565b506040518060400160405280600581526020017f2e6a736f6e000000000000000000000000000000000000000000000000000000815250600a9080519060200190620000799291906200038b565b50662386f26fc10000600c55612710600d556005600e556001600f60006101000a81548160ff0219169083151502179055506000600f60016101000a81548160ff021916908315150217905550348015620000d357600080fd5b506040518060400160405280600781526020017f42414d66657273000000000000000000000000000000000000000000000000008152506040518060400160405280600781526020017f42414d46455253000000000000000000000000000000000000000000000000008152508160009080519060200190620001589291906200038b565b508060019080519060200190620001719291906200038b565b5050506200019462000188620001e860201b60201c565b620001f060201b60201c565b6001600781905550620001e26040518060400160405280601a81526020017f697066733a2f2f5f5f4349445f5f2f68696464656e2e6a736f6e000000000000815250620002b660201b60201c565b62000523565b600033905090565b6000600660009054906101000a900473ffffffffffffffffffffffffffffffffffffffff16905081600660006101000a81548173ffffffffffffffffffffffffffffffffffffffff021916908373ffffffffffffffffffffffffffffffffffffffff1602179055508173ffffffffffffffffffffffffffffffffffffffff168173ffffffffffffffffffffffffffffffffffffffff167f8be0079c531659141344cd1fd0a4f28419497f9722a3daafe3b4186f6b6457e060405160405180910390a35050565b620002c6620001e860201b60201c565b73ffffffffffffffffffffffffffffffffffffffff16620002ec6200036160201b60201c565b73ffffffffffffffffffffffffffffffffffffffff161462000345576040517f08c379a00000000000000000000000000000000000000000000000000000000081526004016200033c906200049c565b60405180910390fd5b80600b90805190602001906200035d9291906200038b565b5050565b6000600660009054906101000a900473ffffffffffffffffffffffffffffffffffffffff16905090565b8280546200039990620004ed565b90600052602060002090601f016020900481019282620003bd576000855562000409565b82601f10620003d857805160ff191683800117855562000409565b8280016001018555821562000409579182015b8281111562000408578251825591602001919060010190620003eb565b5b5090506200041891906200041c565b5090565b5b80821115620004375760008160009055506001016200041d565b5090565b600082825260208201905092915050565b7f4f776e61626c653a2063616c6c6572206973206e6f7420746865206f776e6572600082015250565b6000620004846020836200043b565b915062000491826200044c565b602082019050919050565b60006020820190508181036000830152620004b78162000475565b9050919050565b7f4e487b7100000000000000000000000000000000000000000000000000000000600052602260045260246000fd5b600060028204905060018216806200050657607f821691505b602082108114156200051d576200051c620004be565b5b50919050565b61432580620005336000396000f3fe60806040526004361061020f5760003560e01c80636352211e11610118578063a45ba8e7116100a0578063d5abeb011161006f578063d5abeb0114610768578063e0a8085314610793578063e985e9c5146107bc578063efbd73f4146107f9578063f2fde38b146108225761020f565b8063a45ba8e7146106ae578063b071401b146106d9578063b88d4fde14610702578063c87b56dd1461072b5761020f565b80638da5cb5b116100e75780638da5cb5b146105e857806394354fd01461061357806395d89b411461063e578063a0712d6814610669578063a22cb465146106855761020f565b80636352211e1461052e57806370a082311461056b578063715018a6146105a85780637ec4a659146105bf5761020f565b80633ccfd60b1161019b5780634fdd43cb1161016a5780634fdd43cb1461045957806351830227146104825780635503a0e8146104ad5780635c975abb146104d857806362b99ad4146105035761020f565b80633ccfd60b146103b357806342842e0e146103ca578063438b6300146103f357806344a0d68a146104305761020f565b806313faede6116101e257806313faede6146102e257806316ba10e01461030d57806316c38b3c1461033657806318160ddd1461035f57806323b872dd1461038a5761020f565b806301ffc9a71461021457806306fdde0314610251578063081812fc1461027c578063095ea7b3146102b9575b600080fd5b34801561022057600080fd5b5061023b60048036038101906102369190612c16565b61084b565b6040516102489190612c5e565b60405180910390f35b34801561025d57600080fd5b5061026661092d565b6040516102739190612d12565b60405180910390f35b34801561028857600080fd5b506102a3600480360381019061029e9190612d6a565b6109bf565b6040516102b09190612dd8565b60405180910390f35b3480156102c557600080fd5b506102e060048036038101906102db9190612e1f565b610a44565b005b3480156102ee57600080fd5b506102f7610b5c565b6040516103049190612e6e565b60405180910390f35b34801561031957600080fd5b50610334600480360381019061032f9190612fbe565b610b62565b005b34801561034257600080fd5b5061035d60048036038101906103589190613033565b610bf8565b005b34801561036b57600080fd5b50610374610c91565b6040516103819190612e6e565b60405180910390f35b34801561039657600080fd5b506103b160048036038101906103ac9190613060565b610ca2565b005b3480156103bf57600080fd5b506103c8610d02565b005b3480156103d657600080fd5b506103f160048036038101906103ec9190613060565b610ea1565b005b3480156103ff57600080fd5b5061041a600480360381019061041591906130b3565b610ec1565b604051610427919061319e565b60405180910390f35b34801561043c57600080fd5b5061045760048036038101906104529190612d6a565b610fcc565b005b34801561046557600080fd5b50610480600480360381019061047b9190612fbe565b611052565b005b34801561048e57600080fd5b506104976110e8565b6040516104a49190612c5e565b60405180910390f35b3480156104b957600080fd5b506104c26110fb565b6040516104cf9190612d12565b60405180910390f35b3480156104e457600080fd5b506104ed611189565b6040516104fa9190612c5e565b60405180910390f35b34801561050f57600080fd5b5061051861119c565b6040516105259190612d12565b60405180910390f35b34801561053a57600080fd5b5061055560048036038101906105509190612d6a565b61122a565b6040516105629190612dd8565b60405180910390f35b34801561057757600080fd5b50610592600480360381019061058d91906130b3565b6112dc565b60405161059f9190612e6e565b60405180910390f35b3480156105b457600080fd5b506105bd611394565b005b3480156105cb57600080fd5b506105e660048036038101906105e19190612fbe565b61141c565b005b3480156105f457600080fd5b506105fd6114b2565b60405161060a9190612dd8565b60405180910390f35b34801561061f57600080fd5b506106286114dc565b6040516106359190612e6e565b60405180910390f35b34801561064a57600080fd5b506106536114e2565b6040516106609190612d12565b60405180910390f35b610683600480360381019061067e9190612d6a565b611574565b005b34801561069157600080fd5b506106ac60048036038101906106a791906131c0565b611723565b005b3480156106ba57600080fd5b506106c3611739565b6040516106d09190612d12565b60405180910390f35b3480156106e557600080fd5b5061070060048036038101906106fb9190612d6a565b6117c7565b005b34801561070e57600080fd5b50610729600480360381019061072491906132a1565b61184d565b005b34801561073757600080fd5b50610752600480360381019061074d9190612d6a565b6118af565b60405161075f9190612d12565b60405180910390f35b34801561077457600080fd5b5061077d611a08565b60405161078a9190612e6e565b60405180910390f35b34801561079f57600080fd5b506107ba60048036038101906107b59190613033565b611a0e565b005b3480156107c857600080fd5b506107e360048036038101906107de9190613324565b611aa7565b6040516107f09190612c5e565b60405180910390f35b34801561080557600080fd5b50610820600480360381019061081b9190613364565b611b3b565b005b34801561082e57600080fd5b50610849600480360381019061084491906130b3565b611c71565b005b60007f80ac58cd000000000000000000000000000000000000000000000000000000007bffffffffffffffffffffffffffffffffffffffffffffffffffffffff1916827bffffffffffffffffffffffffffffffffffffffffffffffffffffffff1916148061091657507f5b5e139f000000000000000000000000000000000000000000000000000000007bffffffffffffffffffffffffffffffffffffffffffffffffffffffff1916827bffffffffffffffffffffffffffffffffffffffffffffffffffffffff1916145b80610926575061092582611d69565b5b9050919050565b60606000805461093c906133d3565b80601f0160208091040260200160405190810160405280929190818152602001828054610968906133d3565b80156109b55780601f1061098a576101008083540402835291602001916109b5565b820191906000526020600020905b81548152906001019060200180831161099857829003601f168201915b5050505050905090565b60006109ca82611dd3565b610a09576040517f08c379a0000000000000000000000000000000000000000000000000000000008152600401610a0090613477565b60405180910390fd5b6004600083815260200190815260200160002060009054906101000a900473ffffffffffffffffffffffffffffffffffffffff169050919050565b6000610a4f8261122a565b90508073ffffffffffffffffffffffffffffffffffffffff168373ffffffffffffffffffffffffffffffffffffffff161415610ac0576040517f08c379a0000000000000000000000000000000000000000000000000000000008152600401610ab790613509565b60405180910390fd5b8073ffffffffffffffffffffffffffffffffffffffff16610adf611e3f565b73ffffffffffffffffffffffffffffffffffffffff161480610b0e5750610b0d81610b08611e3f565b611aa7565b5b610b4d576040517f08c379a0000000000000000000000000000000000000000000000000000000008152600401610b449061359b565b60405180910390fd5b610b578383611e47565b505050565b600c5481565b610b6a611e3f565b73ffffffffffffffffffffffffffffffffffffffff16610b886114b2565b73ffffffffffffffffffffffffffffffffffffffff1614610bde576040517f08c379a0000000000000000000000000000000000000000000000000000000008152600401610bd590613607565b60405180910390fd5b80600a9080519060200190610bf4929190612b07565b5050565b610c00611e3f565b73ffffffffffffffffffffffffffffffffffffffff16610c1e6114b2565b73ffffffffffffffffffffffffffffffffffffffff1614610c74576040517f08c379a0000000000000000000000000000000000000000000000000000000008152600401610c6b90613607565b60405180910390fd5b80600f60006101000a81548160ff02191690831515021790555050565b6000610c9d6008611f00565b905090565b610cb3610cad611e3f565b82611f0e565b610cf2576040517f08c379a0000000000000000000000000000000000000000000000000000000008152600401610ce990613699565b60405180910390fd5b610cfd838383611fec565b505050565b610d0a611e3f565b73ffffffffffffffffffffffffffffffffffffffff16610d286114b2565b73ffffffffffffffffffffffffffffffffffffffff1614610d7e576040517f08c379a0000000000000000000000000000000000000000000000000000000008152600401610d7590613607565b60405180910390fd5b600073943590a42c27d08e3744202c4ae5ed55c2de240d73ffffffffffffffffffffffffffffffffffffffff166064600547610dba91906136e8565b610dc49190613771565b604051610dd0906137d3565b60006040518083038185875af1925050503d8060008114610e0d576040519150601f19603f3d011682016040523d82523d6000602084013e610e12565b606091505b5050905080610e2057600080fd5b6000610e2a6114b2565b73ffffffffffffffffffffffffffffffffffffffff1647604051610e4d906137d3565b60006040518083038185875af1925050503d8060008114610e8a576040519150601f19603f3d011682016040523d82523d6000602084013e610e8f565b606091505b5050905080610e9d57600080fd5b5050565b610ebc8383836040518060200160405280600081525061184d565b505050565b60606000610ece836112dc565b905060008167ffffffffffffffff811115610eec57610eeb612e93565b5b604051908082528060200260200182016040528015610f1a5781602001602082028036833780820191505090505b50905060006001905060005b8381108015610f375750600d548211155b15610fc0576000610f478361122a565b90508673ffffffffffffffffffffffffffffffffffffffff168173ffffffffffffffffffffffffffffffffffffffff161415610fac5782848381518110610f9157610f906137e8565b5b6020026020010181815250508180610fa890613817565b9250505b8280610fb790613817565b93505050610f26565b82945050505050919050565b610fd4611e3f565b73ffffffffffffffffffffffffffffffffffffffff16610ff26114b2565b73ffffffffffffffffffffffffffffffffffffffff1614611048576040517f08c379a000000000000000000000000000000000000000000000000000000000815260040161103f90613607565b60405180910390fd5b80600c8190555050565b61105a611e3f565b73ffffffffffffffffffffffffffffffffffffffff166110786114b2565b73ffffffffffffffffffffffffffffffffffffffff16146110ce576040517f08c379a00000000000000000000000000000000000000000000000000000000081526004016110c590613607565b60405180910390fd5b80600b90805190602001906110e4929190612b07565b5050565b600f60019054906101000a900460ff1681565b600a8054611108906133d3565b80601f0160208091040260200160405190810160405280929190818152602001828054611134906133d3565b80156111815780601f1061115657610100808354040283529160200191611181565b820191906000526020600020905b81548152906001019060200180831161116457829003601f168201915b505050505081565b600f60009054906101000a900460ff1681565b600980546111a9906133d3565b80601f01602080910402602001604051908101604052809291908181526020018280546111d5906133d3565b80156112225780601f106111f757610100808354040283529160200191611222565b820191906000526020600020905b81548152906001019060200180831161120557829003601f168201915b505050505081565b6000806002600084815260200190815260200160002060009054906101000a900473ffffffffffffffffffffffffffffffffffffffff169050600073ffffffffffffffffffffffffffffffffffffffff168173ffffffffffffffffffffffffffffffffffffffff1614156112d3576040517f08c379a00000000000000000000000000000000000000000000000000000000081526004016112ca906138d2565b60405180910390fd5b80915050919050565b60008073ffffffffffffffffffffffffffffffffffffffff168273ffffffffffffffffffffffffffffffffffffffff16141561134d576040517f08c379a000000000000000000000000000000000000000000000000000000000815260040161134490613964565b60405180910390fd5b600360008373ffffffffffffffffffffffffffffffffffffffff1673ffffffffffffffffffffffffffffffffffffffff168152602001908152602001600020549050919050565b61139c611e3f565b73ffffffffffffffffffffffffffffffffffffffff166113ba6114b2565b73ffffffffffffffffffffffffffffffffffffffff1614611410576040517f08c379a000000000000000000000000000000000000000000000000000000000815260040161140790613607565b60405180910390fd5b61141a6000612248565b565b611424611e3f565b73ffffffffffffffffffffffffffffffffffffffff166114426114b2565b73ffffffffffffffffffffffffffffffffffffffff1614611498576040517f08c379a000000000000000000000000000000000000000000000000000000000815260040161148f90613607565b60405180910390fd5b80600990805190602001906114ae929190612b07565b5050565b6000600660009054906101000a900473ffffffffffffffffffffffffffffffffffffffff16905090565b600e5481565b6060600180546114f1906133d3565b80601f016020809104026020016040519081016040528092919081815260200182805461151d906133d3565b801561156a5780601f1061153f5761010080835404028352916020019161156a565b820191906000526020600020905b81548152906001019060200180831161154d57829003601f168201915b5050505050905090565b600260075414156115ba576040517f08c379a00000000000000000000000000000000000000000000000000000000081526004016115b1906139d0565b60405180910390fd5b6002600781905550806000811180156115d55750600e548111155b611614576040517f08c379a000000000000000000000000000000000000000000000000000000000815260040161160b90613a3c565b60405180910390fd5b600d54816116226008611f00565b61162c9190613a5c565b111561166d576040517f08c379a000000000000000000000000000000000000000000000000000000000815260040161166490613afe565b60405180910390fd5b600f60009054906101000a900460ff16156116bd576040517f08c379a00000000000000000000000000000000000000000000000000000000081526004016116b490613b6a565b60405180910390fd5b81600c546116cb91906136e8565b34101561170d576040517f08c379a000000000000000000000000000000000000000000000000000000000815260040161170490613bd6565b60405180910390fd5b611717338361230e565b50600160078190555050565b61173561172e611e3f565b838361234e565b5050565b600b8054611746906133d3565b80601f0160208091040260200160405190810160405280929190818152602001828054611772906133d3565b80156117bf5780601f10611794576101008083540402835291602001916117bf565b820191906000526020600020905b8154815290600101906020018083116117a257829003601f168201915b505050505081565b6117cf611e3f565b73ffffffffffffffffffffffffffffffffffffffff166117ed6114b2565b73ffffffffffffffffffffffffffffffffffffffff1614611843576040517f08c379a000000000000000000000000000000000000000000000000000000000815260040161183a90613607565b60405180910390fd5b80600e8190555050565b61185e611858611e3f565b83611f0e565b61189d576040517f08c379a000000000000000000000000000000000000000000000000000000000815260040161189490613699565b60405180910390fd5b6118a9848484846124bb565b50505050565b60606118ba82611dd3565b6118f9576040517f08c379a00000000000000000000000000000000000000000000000000000000081526004016118f090613c68565b60405180910390fd5b60001515600f60019054906101000a900460ff16151514156119a757600b8054611922906133d3565b80601f016020809104026020016040519081016040528092919081815260200182805461194e906133d3565b801561199b5780601f106119705761010080835404028352916020019161199b565b820191906000526020600020905b81548152906001019060200180831161197e57829003601f168201915b50505050509050611a03565b60006119b1612517565b905060008151116119d157604051806020016040528060008152506119ff565b806119db846125a9565b600a6040516020016119ef93929190613d58565b6040516020818303038152906040525b9150505b919050565b600d5481565b611a16611e3f565b73ffffffffffffffffffffffffffffffffffffffff16611a346114b2565b73ffffffffffffffffffffffffffffffffffffffff1614611a8a576040517f08c379a0000000000000000000000000000000000000000000000000000000008152600401611a8190613607565b60405180910390fd5b80600f60016101000a81548160ff02191690831515021790555050565b6000600560008473ffffffffffffffffffffffffffffffffffffffff1673ffffffffffffffffffffffffffffffffffffffff16815260200190815260200160002060008373ffffffffffffffffffffffffffffffffffffffff1673ffffffffffffffffffffffffffffffffffffffff16815260200190815260200160002060009054906101000a900460ff16905092915050565b81600081118015611b4e5750600e548111155b611b8d576040517f08c379a0000000000000000000000000000000000000000000000000000000008152600401611b8490613a3c565b60405180910390fd5b600d5481611b9b6008611f00565b611ba59190613a5c565b1115611be6576040517f08c379a0000000000000000000000000000000000000000000000000000000008152600401611bdd90613afe565b60405180910390fd5b611bee611e3f565b73ffffffffffffffffffffffffffffffffffffffff16611c0c6114b2565b73ffffffffffffffffffffffffffffffffffffffff1614611c62576040517f08c379a0000000000000000000000000000000000000000000000000000000008152600401611c5990613607565b60405180910390fd5b611c6c828461230e565b505050565b611c79611e3f565b73ffffffffffffffffffffffffffffffffffffffff16611c976114b2565b73ffffffffffffffffffffffffffffffffffffffff1614611ced576040517f08c379a0000000000000000000000000000000000000000000000000000000008152600401611ce490613607565b60405180910390fd5b600073ffffffffffffffffffffffffffffffffffffffff168173ffffffffffffffffffffffffffffffffffffffff161415611d5d576040517f08c379a0000000000000000000000000000000000000000000000000000000008152600401611d5490613dfb565b60405180910390fd5b611d6681612248565b50565b60007f01ffc9a7000000000000000000000000000000000000000000000000000000007bffffffffffffffffffffffffffffffffffffffffffffffffffffffff1916827bffffffffffffffffffffffffffffffffffffffffffffffffffffffff1916149050919050565b60008073ffffffffffffffffffffffffffffffffffffffff166002600084815260200190815260200160002060009054906101000a900473ffffffffffffffffffffffffffffffffffffffff1673ffffffffffffffffffffffffffffffffffffffff1614159050919050565b600033905090565b816004600083815260200190815260200160002060006101000a81548173ffffffffffffffffffffffffffffffffffffffff021916908373ffffffffffffffffffffffffffffffffffffffff160217905550808273ffffffffffffffffffffffffffffffffffffffff16611eba8361122a565b73ffffffffffffffffffffffffffffffffffffffff167f8c5be1e5ebec7d5bd14f71427d1e84f3dd0314c0f7b2291e5b200ac8c7c3b92560405160405180910390a45050565b600081600001549050919050565b6000611f1982611dd3565b611f58576040517f08c379a0000000000000000000000000000000000000000000000000000000008152600401611f4f90613e8d565b60405180910390fd5b6000611f638361122a565b90508073ffffffffffffffffffffffffffffffffffffffff168473ffffffffffffffffffffffffffffffffffffffff161480611fd257508373ffffffffffffffffffffffffffffffffffffffff16611fba846109bf565b73ffffffffffffffffffffffffffffffffffffffff16145b80611fe35750611fe28185611aa7565b5b91505092915050565b8273ffffffffffffffffffffffffffffffffffffffff1661200c8261122a565b73ffffffffffffffffffffffffffffffffffffffff1614612062576040517f08c379a000000000000000000000000000000000000000000000000000000000815260040161205990613f1f565b60405180910390fd5b600073ffffffffffffffffffffffffffffffffffffffff168273ffffffffffffffffffffffffffffffffffffffff1614156120d2576040517f08c379a00000000000000000000000000000000000000000000000000000000081526004016120c990613fb1565b60405180910390fd5b6120dd83838361270a565b6120e8600082611e47565b6001600360008573ffffffffffffffffffffffffffffffffffffffff1673ffffffffffffffffffffffffffffffffffffffff16815260200190815260200160002060008282546121389190613fd1565b925050819055506001600360008473ffffffffffffffffffffffffffffffffffffffff1673ffffffffffffffffffffffffffffffffffffffff168152602001908152602001600020600082825461218f9190613a5c565b92505081905550816002600083815260200190815260200160002060006101000a81548173ffffffffffffffffffffffffffffffffffffffff021916908373ffffffffffffffffffffffffffffffffffffffff160217905550808273ffffffffffffffffffffffffffffffffffffffff168473ffffffffffffffffffffffffffffffffffffffff167fddf252ad1be2c89b69c2b068fc378daa952ba7f163c4a11628f55a4df523b3ef60405160405180910390a4505050565b6000600660009054906101000a900473ffffffffffffffffffffffffffffffffffffffff16905081600660006101000a81548173ffffffffffffffffffffffffffffffffffffffff021916908373ffffffffffffffffffffffffffffffffffffffff1602179055508173ffffffffffffffffffffffffffffffffffffffff168173ffffffffffffffffffffffffffffffffffffffff167f8be0079c531659141344cd1fd0a4f28419497f9722a3daafe3b4186f6b6457e060405160405180910390a35050565b60005b8181101561234957612323600861270f565b612336836123316008611f00565b612725565b808061234190613817565b915050612311565b505050565b8173ffffffffffffffffffffffffffffffffffffffff168373ffffffffffffffffffffffffffffffffffffffff1614156123bd576040517f08c379a00000000000000000000000000000000000000000000000000000000081526004016123b490614051565b60405180910390fd5b80600560008573ffffffffffffffffffffffffffffffffffffffff1673ffffffffffffffffffffffffffffffffffffffff16815260200190815260200160002060008473ffffffffffffffffffffffffffffffffffffffff1673ffffffffffffffffffffffffffffffffffffffff16815260200190815260200160002060006101000a81548160ff0219169083151502179055508173ffffffffffffffffffffffffffffffffffffffff168373ffffffffffffffffffffffffffffffffffffffff167f17307eab39ab6107e8899845ad3d59bd9653f200f220920489ca2b5937696c31836040516124ae9190612c5e565b60405180910390a3505050565b6124c6848484611fec565b6124d284848484612743565b612511576040517f08c379a0000000000000000000000000000000000000000000000000000000008152600401612508906140e3565b60405180910390fd5b50505050565b606060098054612526906133d3565b80601f0160208091040260200160405190810160405280929190818152602001828054612552906133d3565b801561259f5780601f106125745761010080835404028352916020019161259f565b820191906000526020600020905b81548152906001019060200180831161258257829003601f168201915b5050505050905090565b606060008214156125f1576040518060400160405280600181526020017f30000000000000000000000000000000000000000000000000000000000000008152509050612705565b600082905060005b6000821461262357808061260c90613817565b915050600a8261261c9190613771565b91506125f9565b60008167ffffffffffffffff81111561263f5761263e612e93565b5b6040519080825280601f01601f1916602001820160405280156126715781602001600182028036833780820191505090505b5090505b600085146126fe5760018261268a9190613fd1565b9150600a856126999190614103565b60306126a59190613a5c565b60f81b8183815181106126bb576126ba6137e8565b5b60200101907effffffffffffffffffffffffffffffffffffffffffffffffffffffffffffff1916908160001a905350600a856126f79190613771565b9450612675565b8093505050505b919050565b505050565b6001816000016000828254019250508190555050565b61273f8282604051806020016040528060008152506128cb565b5050565b60006127648473ffffffffffffffffffffffffffffffffffffffff16612926565b156128be578373ffffffffffffffffffffffffffffffffffffffff1663150b7a0261278d611e3f565b8786866040518563ffffffff1660e01b81526004016127af9493929190614189565b6020604051808303816000875af19250505080156127eb57506040513d601f19601f820116820180604052508101906127e891906141ea565b60015b61286e573d806000811461281b576040519150601f19603f3d011682016040523d82523d6000602084013e612820565b606091505b50600081511415612866576040517f08c379a000000000000000000000000000000000000000000000000000000000815260040161285d906140e3565b60405180910390fd5b805181602001fd5b63150b7a0260e01b7bffffffffffffffffffffffffffffffffffffffffffffffffffffffff1916817bffffffffffffffffffffffffffffffffffffffffffffffffffffffff1916149150506128c3565b600190505b949350505050565b6128d58383612939565b6128e26000848484612743565b612921576040517f08c379a0000000000000000000000000000000000000000000000000000000008152600401612918906140e3565b60405180910390fd5b505050565b600080823b905060008111915050919050565b600073ffffffffffffffffffffffffffffffffffffffff168273ffffffffffffffffffffffffffffffffffffffff1614156129a9576040517f08c379a00000000000000000000000000000000000000000000000000000000081526004016129a090614263565b60405180910390fd5b6129b281611dd3565b156129f2576040517f08c379a00000000000000000000000000000000000000000000000000000000081526004016129e9906142cf565b60405180910390fd5b6129fe6000838361270a565b6001600360008473ffffffffffffffffffffffffffffffffffffffff1673ffffffffffffffffffffffffffffffffffffffff1681526020019081526020016000206000828254612a4e9190613a5c565b92505081905550816002600083815260200190815260200160002060006101000a81548173ffffffffffffffffffffffffffffffffffffffff021916908373ffffffffffffffffffffffffffffffffffffffff160217905550808273ffffffffffffffffffffffffffffffffffffffff16600073ffffffffffffffffffffffffffffffffffffffff167fddf252ad1be2c89b69c2b068fc378daa952ba7f163c4a11628f55a4df523b3ef60405160405180910390a45050565b828054612b13906133d3565b90600052602060002090601f016020900481019282612b355760008555612b7c565b82601f10612b4e57805160ff1916838001178555612b7c565b82800160010185558215612b7c579182015b82811115612b7b578251825591602001919060010190612b60565b5b509050612b899190612b8d565b5090565b5b80821115612ba6576000816000905550600101612b8e565b5090565b6000604051905090565b600080fd5b600080fd5b60007fffffffff0000000000000000000000000000000000000000000000000000000082169050919050565b612bf381612bbe565b8114612bfe57600080fd5b50565b600081359050612c1081612bea565b92915050565b600060208284031215612c2c57612c2b612bb4565b5b6000612c3a84828501612c01565b91505092915050565b60008115159050919050565b612c5881612c43565b82525050565b6000602082019050612c736000830184612c4f565b92915050565b600081519050919050565b600082825260208201905092915050565b60005b83811015612cb3578082015181840152602081019050612c98565b83811115612cc2576000848401525b50505050565b6000601f19601f8301169050919050565b6000612ce482612c79565b612cee8185612c84565b9350612cfe818560208601612c95565b612d0781612cc8565b840191505092915050565b60006020820190508181036000830152612d2c8184612cd9565b905092915050565b6000819050919050565b612d4781612d34565b8114612d5257600080fd5b50565b600081359050612d6481612d3e565b92915050565b600060208284031215612d8057612d7f612bb4565b5b6000612d8e84828501612d55565b91505092915050565b600073ffffffffffffffffffffffffffffffffffffffff82169050919050565b6000612dc282612d97565b9050919050565b612dd281612db7565b82525050565b6000602082019050612ded6000830184612dc9565b92915050565b612dfc81612db7565b8114612e0757600080fd5b50565b600081359050612e1981612df3565b92915050565b60008060408385031215612e3657612e35612bb4565b5b6000612e4485828601612e0a565b9250506020612e5585828601612d55565b9150509250929050565b612e6881612d34565b82525050565b6000602082019050612e836000830184612e5f565b92915050565b600080fd5b600080fd5b7f4e487b7100000000000000000000000000000000000000000000000000000000600052604160045260246000fd5b612ecb82612cc8565b810181811067ffffffffffffffff82111715612eea57612ee9612e93565b5b80604052505050565b6000612efd612baa565b9050612f098282612ec2565b919050565b600067ffffffffffffffff821115612f2957612f28612e93565b5b612f3282612cc8565b9050602081019050919050565b82818337600083830152505050565b6000612f61612f5c84612f0e565b612ef3565b905082815260208101848484011115612f7d57612f7c612e8e565b5b612f88848285612f3f565b509392505050565b600082601f830112612fa557612fa4612e89565b5b8135612fb5848260208601612f4e565b91505092915050565b600060208284031215612fd457612fd3612bb4565b5b600082013567ffffffffffffffff811115612ff257612ff1612bb9565b5b612ffe84828501612f90565b91505092915050565b61301081612c43565b811461301b57600080fd5b50565b60008135905061302d81613007565b92915050565b60006020828403121561304957613048612bb4565b5b60006130578482850161301e565b91505092915050565b60008060006060848603121561307957613078612bb4565b5b600061308786828701612e0a565b935050602061309886828701612e0a565b92505060406130a986828701612d55565b9150509250925092565b6000602082840312156130c9576130c8612bb4565b5b60006130d784828501612e0a565b91505092915050565b600081519050919050565b600082825260208201905092915050565b6000819050602082019050919050565b61311581612d34565b82525050565b6000613127838361310c565b60208301905092915050565b6000602082019050919050565b600061314b826130e0565b61315581856130eb565b9350613160836130fc565b8060005b83811015613191578151613178888261311b565b975061318383613133565b925050600181019050613164565b5085935050505092915050565b600060208201905081810360008301526131b88184613140565b905092915050565b600080604083850312156131d7576131d6612bb4565b5b60006131e585828601612e0a565b92505060206131f68582860161301e565b9150509250929050565b600067ffffffffffffffff82111561321b5761321a612e93565b5b61322482612cc8565b9050602081019050919050565b600061324461323f84613200565b612ef3565b9050828152602081018484840111156132605761325f612e8e565b5b61326b848285612f3f565b509392505050565b600082601f83011261328857613287612e89565b5b8135613298848260208601613231565b91505092915050565b600080600080608085870312156132bb576132ba612bb4565b5b60006132c987828801612e0a565b94505060206132da87828801612e0a565b93505060406132eb87828801612d55565b925050606085013567ffffffffffffffff81111561330c5761330b612bb9565b5b61331887828801613273565b91505092959194509250565b6000806040838503121561333b5761333a612bb4565b5b600061334985828601612e0a565b925050602061335a85828601612e0a565b9150509250929050565b6000806040838503121561337b5761337a612bb4565b5b600061338985828601612d55565b925050602061339a85828601612e0a565b9150509250929050565b7f4e487b7100000000000000000000000000000000000000000000000000000000600052602260045260246000fd5b600060028204905060018216806133eb57607f821691505b602082108114156133ff576133fe6133a4565b5b50919050565b7f4552433732313a20617070726f76656420717565727920666f72206e6f6e657860008201527f697374656e7420746f6b656e0000000000000000000000000000000000000000602082015250565b6000613461602c83612c84565b915061346c82613405565b604082019050919050565b6000602082019050818103600083015261349081613454565b9050919050565b7f4552433732313a20617070726f76616c20746f2063757272656e74206f776e6560008201527f7200000000000000000000000000000000000000000000000000000000000000602082015250565b60006134f3602183612c84565b91506134fe82613497565b604082019050919050565b60006020820190508181036000830152613522816134e6565b9050919050565b7f4552433732313a20617070726f76652063616c6c6572206973206e6f74206f7760008201527f6e6572206e6f7220617070726f76656420666f7220616c6c0000000000000000602082015250565b6000613585603883612c84565b915061359082613529565b604082019050919050565b600060208201905081810360008301526135b481613578565b9050919050565b7f4f776e61626c653a2063616c6c6572206973206e6f7420746865206f776e6572600082015250565b60006135f1602083612c84565b91506135fc826135bb565b602082019050919050565b60006020820190508181036000830152613620816135e4565b9050919050565b7f4552433732313a207472616e736665722063616c6c6572206973206e6f74206f60008201527f776e6572206e6f7220617070726f766564000000000000000000000000000000602082015250565b6000613683603183612c84565b915061368e82613627565b604082019050919050565b600060208201905081810360008301526136b281613676565b9050919050565b7f4e487b7100000000000000000000000000000000000000000000000000000000600052601160045260246000fd5b60006136f382612d34565b91506136fe83612d34565b9250817fffffffffffffffffffffffffffffffffffffffffffffffffffffffffffffffff0483118215151615613737576137366136b9565b5b828202905092915050565b7f4e487b7100000000000000000000000000000000000000000000000000000000600052601260045260246000fd5b600061377c82612d34565b915061378783612d34565b92508261379757613796613742565b5b828204905092915050565b600081905092915050565b50565b60006137bd6000836137a2565b91506137c8826137ad565b600082019050919050565b60006137de826137b0565b9150819050919050565b7f4e487b7100000000000000000000000000000000000000000000000000000000600052603260045260246000fd5b600061382282612d34565b91507fffffffffffffffffffffffffffffffffffffffffffffffffffffffffffffffff821415613855576138546136b9565b5b600182019050919050565b7f4552433732313a206f776e657220717565727920666f72206e6f6e657869737460008201527f656e7420746f6b656e0000000000000000000000000000000000000000000000602082015250565b60006138bc602983612c84565b91506138c782613860565b604082019050919050565b600060208201905081810360008301526138eb816138af565b9050919050565b7f4552433732313a2062616c616e636520717565727920666f7220746865207a6560008201527f726f206164647265737300000000000000000000000000000000000000000000602082015250565b600061394e602a83612c84565b9150613959826138f2565b604082019050919050565b6000602082019050818103600083015261397d81613941565b9050919050565b7f5265656e7472616e637947756172643a207265656e7472616e742063616c6c00600082015250565b60006139ba601f83612c84565b91506139c582613984565b602082019050919050565b600060208201905081810360008301526139e9816139ad565b9050919050565b7f496e76616c6964206d696e7420616d6f756e7421000000000000000000000000600082015250565b6000613a26601483612c84565b9150613a31826139f0565b602082019050919050565b60006020820190508181036000830152613a5581613a19565b9050919050565b6000613a6782612d34565b9150613a7283612d34565b9250827fffffffffffffffffffffffffffffffffffffffffffffffffffffffffffffffff03821115613aa757613aa66136b9565b5b828201905092915050565b7f4d617820737570706c7920657863656564656421000000000000000000000000600082015250565b6000613ae8601483612c84565b9150613af382613ab2565b602082019050919050565b60006020820190508181036000830152613b1781613adb565b9050919050565b7f54686520636f6e74726163742069732070617573656421000000000000000000600082015250565b6000613b54601783612c84565b9150613b5f82613b1e565b602082019050919050565b60006020820190508181036000830152613b8381613b47565b9050919050565b7f496e73756666696369656e742066756e64732100000000000000000000000000600082015250565b6000613bc0601383612c84565b9150613bcb82613b8a565b602082019050919050565b60006020820190508181036000830152613bef81613bb3565b9050919050565b7f4552433732314d657461646174613a2055524920717565727920666f72206e6f60008201527f6e6578697374656e7420746f6b656e0000000000000000000000000000000000602082015250565b6000613c52602f83612c84565b9150613c5d82613bf6565b604082019050919050565b60006020820190508181036000830152613c8181613c45565b9050919050565b600081905092915050565b6000613c9e82612c79565b613ca88185613c88565b9350613cb8818560208601612c95565b80840191505092915050565b60008190508160005260206000209050919050565b60008154613ce6816133d3565b613cf08186613c88565b94506001821660008114613d0b5760018114613d1c57613d4f565b60ff19831686528186019350613d4f565b613d2585613cc4565b60005b83811015613d4757815481890152600182019150602081019050613d28565b838801955050505b50505092915050565b6000613d648286613c93565b9150613d708285613c93565b9150613d7c8284613cd9565b9150819050949350505050565b7f4f776e61626c653a206e6577206f776e657220697320746865207a65726f206160008201527f6464726573730000000000000000000000000000000000000000000000000000602082015250565b6000613de5602683612c84565b9150613df082613d89565b604082019050919050565b60006020820190508181036000830152613e1481613dd8565b9050919050565b7f4552433732313a206f70657261746f7220717565727920666f72206e6f6e657860008201527f697374656e7420746f6b656e0000000000000000000000000000000000000000602082015250565b6000613e77602c83612c84565b9150613e8282613e1b565b604082019050919050565b60006020820190508181036000830152613ea681613e6a565b9050919050565b7f4552433732313a207472616e73666572206f6620746f6b656e2074686174206960008201527f73206e6f74206f776e0000000000000000000000000000000000000000000000602082015250565b6000613f09602983612c84565b9150613f1482613ead565b604082019050919050565b60006020820190508181036000830152613f3881613efc565b9050919050565b7f4552433732313a207472616e7366657220746f20746865207a65726f2061646460008201527f7265737300000000000000000000000000000000000000000000000000000000602082015250565b6000613f9b602483612c84565b9150613fa682613f3f565b604082019050919050565b60006020820190508181036000830152613fca81613f8e565b9050919050565b6000613fdc82612d34565b9150613fe783612d34565b925082821015613ffa57613ff96136b9565b5b828203905092915050565b7f4552433732313a20617070726f766520746f2063616c6c657200000000000000600082015250565b600061403b601983612c84565b915061404682614005565b602082019050919050565b6000602082019050818103600083015261406a8161402e565b9050919050565b7f4552433732313a207472616e7366657220746f206e6f6e20455243373231526560008201527f63656976657220696d706c656d656e7465720000000000000000000000000000602082015250565b60006140cd603283612c84565b91506140d882614071565b604082019050919050565b600060208201905081810360008301526140fc816140c0565b9050919050565b600061410e82612d34565b915061411983612d34565b92508261412957614128613742565b5b828206905092915050565b600081519050919050565b600082825260208201905092915050565b600061415b82614134565b614165818561413f565b9350614175818560208601612c95565b61417e81612cc8565b840191505092915050565b600060808201905061419e6000830187612dc9565b6141ab6020830186612dc9565b6141b86040830185612e5f565b81810360608301526141ca8184614150565b905095945050505050565b6000815190506141e481612bea565b92915050565b600060208284031215614200576141ff612bb4565b5b600061420e848285016141d5565b91505092915050565b7f4552433732313a206d696e7420746f20746865207a65726f2061646472657373600082015250565b600061424d602083612c84565b915061425882614217565b602082019050919050565b6000602082019050818103600083015261427c81614240565b9050919050565b7f4552433732313a20746f6b656e20616c7265616479206d696e74656400000000600082015250565b60006142b9601c83612c84565b91506142c482614283565b602082019050919050565b600060208201905081810360008301526142e8816142ac565b905091905056fea2646970667358221220d8a54c66bff025edbadce3377b8683c192db382c9874a74d40b08e3e84a6ea0c64736f6c634300080a0033",
  "immutableReferences": {},
  "source": "// SPDX-License-Identifier: MIT\n\n// Amended by HashLips\n/**\n    !Disclaimer!\n\n    These contracts have been used to create tutorials,\n    and was created for the purpose to teach people\n    how to create smart contracts on the blockchain.\n    please review this code on your own before using any of\n    the following code for production.\n    The developer will not be responsible or liable for all loss or \n    damage whatsoever caused by you participating in any way in the \n    experimental code, whether putting money into the contract or \n    using the code for your own project.\n*/\n\npragma solidity >=0.7.0 <0.9.0;\n\nimport \"@openzeppelin/contracts/token/ERC721/ERC721.sol\";\nimport \"@openzeppelin/contracts/utils/Counters.sol\";\nimport \"@openzeppelin/contracts/access/Ownable.sol\";\nimport \"@openzeppelin/contracts/security/ReentrancyGuard.sol\";\n\ncontract SimpleNftLowerGas is ERC721, Ownable, ReentrancyGuard {\n    using Strings for uint256;\n    using Counters for Counters.Counter;\n\n    Counters.Counter private supply;\n\n    string public uriPrefix = \"\";\n    string public uriSuffix = \".json\";\n    string public hiddenMetadataUri;\n\n    uint256 public cost = 0.01 ether;\n    uint256 public maxSupply = 10000;\n    uint256 public maxMintAmountPerTx = 5;\n\n    bool public paused = true;\n    bool public revealed = false;\n\n    constructor() ERC721(\"BAMfers\", \"BAMFERS\") {\n        setHiddenMetadataUri(\"ipfs://__CID__/hidden.json\");\n    }\n\n    modifier mintCompliance(uint256 _mintAmount) {\n        require(\n            _mintAmount > 0 && _mintAmount <= maxMintAmountPerTx,\n            \"Invalid mint amount!\"\n        );\n        require(\n            supply.current() + _mintAmount <= maxSupply,\n            \"Max supply exceeded!\"\n        );\n        _;\n    }\n\n    function totalSupply() public view returns (uint256) {\n        return supply.current();\n    }\n\n    function mint(uint256 _mintAmount)\n        public\n        payable\n        nonReentrant\n        mintCompliance(_mintAmount)\n    {\n        require(!paused, \"The contract is paused!\");\n        require(msg.value >= cost * _mintAmount, \"Insufficient funds!\");\n\n        _mintLoop(msg.sender, _mintAmount);\n    }\n\n    function mintForAddress(uint256 _mintAmount, address _receiver)\n        public\n        mintCompliance(_mintAmount)\n        onlyOwner\n    {\n        _mintLoop(_receiver, _mintAmount);\n    }\n\n    function walletOfOwner(address _owner)\n        public\n        view\n        returns (uint256[] memory)\n    {\n        uint256 ownerTokenCount = balanceOf(_owner);\n        uint256[] memory ownedTokenIds = new uint256[](ownerTokenCount);\n        uint256 currentTokenId = 1;\n        uint256 ownedTokenIndex = 0;\n\n        while (\n            ownedTokenIndex < ownerTokenCount && currentTokenId <= maxSupply\n        ) {\n            address currentTokenOwner = ownerOf(currentTokenId);\n\n            if (currentTokenOwner == _owner) {\n                ownedTokenIds[ownedTokenIndex] = currentTokenId;\n\n                ownedTokenIndex++;\n            }\n\n            currentTokenId++;\n        }\n\n        return ownedTokenIds;\n    }\n\n    function tokenURI(uint256 _tokenId)\n        public\n        view\n        virtual\n        override\n        returns (string memory)\n    {\n        require(\n            _exists(_tokenId),\n            \"ERC721Metadata: URI query for nonexistent token\"\n        );\n\n        if (revealed == false) {\n            return hiddenMetadataUri;\n        }\n\n        string memory currentBaseURI = _baseURI();\n        return\n            bytes(currentBaseURI).length > 0\n                ? string(\n                    abi.encodePacked(\n                        currentBaseURI,\n                        _tokenId.toString(),\n                        uriSuffix\n                    )\n                )\n                : \"\";\n    }\n\n    function setRevealed(bool _state) public onlyOwner {\n        revealed = _state;\n    }\n\n    function setCost(uint256 _cost) public onlyOwner {\n        cost = _cost;\n    }\n\n    function setMaxMintAmountPerTx(uint256 _maxMintAmountPerTx)\n        public\n        onlyOwner\n    {\n        maxMintAmountPerTx = _maxMintAmountPerTx;\n    }\n\n    function setHiddenMetadataUri(string memory _hiddenMetadataUri)\n        public\n        onlyOwner\n    {\n        hiddenMetadataUri = _hiddenMetadataUri;\n    }\n\n    function setUriPrefix(string memory _uriPrefix) public onlyOwner {\n        uriPrefix = _uriPrefix;\n    }\n\n    function setUriSuffix(string memory _uriSuffix) public onlyOwner {\n        uriSuffix = _uriSuffix;\n    }\n\n    function setPaused(bool _state) public onlyOwner {\n        paused = _state;\n    }\n\n    function withdraw() public onlyOwner {\n        // This will pay HashLips 5% of the initial sale.\n        // You can remove this if you want, or keep it in to support HashLips and his channel.\n        // =============================================================================\n        (bool hs, ) = payable(0x943590A42C27D08e3744202c4Ae5eD55c2dE240D).call{\n            value: (address(this).balance * 5) / 100\n        }(\"\");\n        require(hs);\n        // =============================================================================\n\n        // This will transfer the remaining contract balance to the owner.\n        // Do not remove this otherwise you will not be able to withdraw the funds.\n        // =============================================================================\n        (bool os, ) = payable(owner()).call{value: address(this).balance}(\"\");\n        require(os);\n        // =============================================================================\n    }\n\n    function _mintLoop(address _receiver, uint256 _mintAmount) internal {\n        for (uint256 i = 0; i < _mintAmount; i++) {\n            supply.increment();\n            _safeMint(_receiver, supply.current());\n        }\n    }\n\n    function _baseURI() internal view virtual override returns (string memory) {\n        return uriPrefix;\n    }\n}\n",
  "sourcePath": "/Volumes/toffysoft/toffysoft.inc/bam/bam-contract/contracts/BAMfers.sol",
  "compiler": {
    "name": "solc",
    "version": "0.8.10+commit.fc410830.Emscripten.clang"
  },
  "schemaVersion": "3.4.4",
  "updatedAt": "2022-03-16T17:49:23.906Z",
  "devdoc": {
    "kind": "dev",
    "methods": {
      "approve(address,uint256)": {
        "details": "See {IERC721-approve}."
      },
      "balanceOf(address)": {
        "details": "See {IERC721-balanceOf}."
      },
      "getApproved(uint256)": {
        "details": "See {IERC721-getApproved}."
      },
      "isApprovedForAll(address,address)": {
        "details": "See {IERC721-isApprovedForAll}."
      },
      "name()": {
        "details": "See {IERC721Metadata-name}."
      },
      "owner()": {
        "details": "Returns the address of the current owner."
      },
      "ownerOf(uint256)": {
        "details": "See {IERC721-ownerOf}."
      },
      "renounceOwnership()": {
        "details": "Leaves the contract without owner. It will not be possible to call `onlyOwner` functions anymore. Can only be called by the current owner. NOTE: Renouncing ownership will leave the contract without an owner, thereby removing any functionality that is only available to the owner."
      },
      "safeTransferFrom(address,address,uint256)": {
        "details": "See {IERC721-safeTransferFrom}."
      },
      "safeTransferFrom(address,address,uint256,bytes)": {
        "details": "See {IERC721-safeTransferFrom}."
      },
      "setApprovalForAll(address,bool)": {
        "details": "See {IERC721-setApprovalForAll}."
      },
      "supportsInterface(bytes4)": {
        "details": "See {IERC165-supportsInterface}."
      },
      "symbol()": {
        "details": "See {IERC721Metadata-symbol}."
      },
      "transferFrom(address,address,uint256)": {
        "details": "See {IERC721-transferFrom}."
      },
      "transferOwnership(address)": {
        "details": "Transfers ownership of the contract to a new account (`newOwner`). Can only be called by the current owner."
      }
    },
    "version": 1
  },
  "userdoc": {
    "kind": "user",
    "methods": {},
    "version": 1
  }
}